{
  "_format": "hh-sol-artifact-1",
  "contractName": "CitizenRegistry",
  "sourceName": "contracts/CitizenRegistry.sol",
  "abi": [
    {
      "inputs": [],
      "stateMutability": "nonpayable",
      "type": "constructor"
    },
    {
      "anonymous": false,
      "inputs": [
        {
          "indexed": true,
          "internalType": "address",
          "name": "citizen",
          "type": "address"
        },
        {
          "indexed": false,
          "internalType": "string",
          "name": "name",
          "type": "string"
        },
        {
          "indexed": false,
          "internalType": "string",
          "name": "nationalId",
          "type": "string"
        }
      ],
      "name": "CitizenRegistered",
      "type": "event"
    },
    {
      "anonymous": false,
      "inputs": [
        {
          "indexed": true,
          "internalType": "address",
          "name": "citizen",
          "type": "address"
        },
        {
          "indexed": false,
          "internalType": "string",
          "name": "nationalId",
          "type": "string"
        }
      ],
      "name": "CitizenVerified",
      "type": "event"
    },
    {
      "inputs": [
        {
          "internalType": "address",
          "name": "",
          "type": "address"
        }
      ],
      "name": "citizens",
      "outputs": [
        {
          "internalType": "string",
          "name": "name",
          "type": "string"
        },
        {
          "internalType": "string",
          "name": "email",
          "type": "string"
        },
        {
          "internalType": "string",
          "name": "country",
          "type": "string"
        },
        {
          "internalType": "string",
          "name": "nationalId",
          "type": "string"
        },
        {
          "internalType": "string",
          "name": "phoneNumber",
          "type": "string"
        },
        {
          "internalType": "uint256",
          "name": "age",
          "type": "uint256"
        },
        {
          "internalType": "enum CitizenRegistry.IDStatus",
          "name": "status",
          "type": "uint8"
        }
      ],
      "stateMutability": "view",
      "type": "function"
    },
    {
      "inputs": [
        {
          "internalType": "address",
          "name": "_citizenAddress",
          "type": "address"
        }
      ],
      "name": "isCitizenVerified",
      "outputs": [
        {
          "internalType": "bool",
          "name": "",
          "type": "bool"
        }
      ],
      "stateMutability": "view",
      "type": "function"
    },
    {
      "inputs": [],
      "name": "nrb",
      "outputs": [
        {
          "internalType": "address",
          "name": "",
          "type": "address"
        }
      ],
      "stateMutability": "view",
      "type": "function"
    },
    {
      "inputs": [
        {
          "internalType": "string",
          "name": "_name",
          "type": "string"
        },
        {
          "internalType": "string",
          "name": "_email",
          "type": "string"
        },
        {
          "internalType": "string",
          "name": "_country",
          "type": "string"
        },
        {
          "internalType": "string",
          "name": "_nationalId",
          "type": "string"
        },
        {
          "internalType": "string",
          "name": "_phoneNumber",
          "type": "string"
        },
        {
          "internalType": "uint256",
          "name": "_age",
          "type": "uint256"
        }
      ],
      "name": "registerCitizen",
      "outputs": [],
      "stateMutability": "nonpayable",
      "type": "function"
    },
    {
      "inputs": [
        {
          "internalType": "address",
          "name": "_citizenAddress",
          "type": "address"
        }
      ],
      "name": "verifyCitizen",
      "outputs": [],
      "stateMutability": "nonpayable",
      "type": "function"
    }
  ],
  "bytecode": "0x608060405234801561001057600080fd5b50336000806101000a81548173ffffffffffffffffffffffffffffffffffffffff021916908373ffffffffffffffffffffffffffffffffffffffff16021790555061135f806100606000396000f3fe608060405234801561001057600080fd5b50600436106100575760003560e01c806313a0c0b71461005c578063308cdc3914610078578063930ee7fe146100945780639a3bdfb2146100b2578063d4f910a7146100e2575b600080fd5b61007660048036038101906100719190610a23565b610118565b005b610092600480360381019061008d9190610b9a565b610328565b005b61009c6104f3565b6040516100a99190610bd6565b60405180910390f35b6100cc60048036038101906100c79190610b9a565b610517565b6040516100d99190610c0c565b60405180910390f35b6100fc60048036038101906100f79190610b9a565b61059c565b60405161010f9796959493929190610d2c565b60405180910390f35b600083511161015c576040517f08c379a000000000000000000000000000000000000000000000000000000000815260040161015390610e0a565b60405180910390fd5b60008551116101a0576040517f08c379a000000000000000000000000000000000000000000000000000000000815260040161019790610e76565b60405180910390fd5b6040518060e00160405280878152602001868152602001858152602001848152602001838152602001828152602001600060028111156101e3576101e2610cb5565b5b815250600160003373ffffffffffffffffffffffffffffffffffffffff1673ffffffffffffffffffffffffffffffffffffffff168152602001908152602001600020600082015181600001908161023a91906110a2565b50602082015181600101908161025091906110a2565b50604082015181600201908161026691906110a2565b50606082015181600301908161027c91906110a2565b50608082015181600401908161029291906110a2565b5060a0820151816005015560c08201518160060160006101000a81548160ff021916908360028111156102c8576102c7610cb5565b5b02179055509050503373ffffffffffffffffffffffffffffffffffffffff167f0570178d7f1a5314b7726f839c54096d17c847cf07a17c21ef04c8700b88df4e8785604051610318929190611174565b60405180910390a2505050505050565b60008054906101000a900473ffffffffffffffffffffffffffffffffffffffff1673ffffffffffffffffffffffffffffffffffffffff163373ffffffffffffffffffffffffffffffffffffffff16146103b6576040517f08c379a00000000000000000000000000000000000000000000000000000000081526004016103ad906111f7565b60405180910390fd5b6000600160008373ffffffffffffffffffffffffffffffffffffffff1673ffffffffffffffffffffffffffffffffffffffff16815260200190815260200160002090506001600281111561040d5761040c610cb5565b5b8160060160009054906101000a900460ff16600281111561043157610430610cb5565b5b03610471576040517f08c379a000000000000000000000000000000000000000000000000000000000815260040161046890611263565b60405180910390fd5b60018160060160006101000a81548160ff0219169083600281111561049957610498610cb5565b5b02179055508173ffffffffffffffffffffffffffffffffffffffff167fc316019e42aa83df5ce9eed5d85528daeb77f57275ca631d13296bc08b45501f826003016040516104e79190611307565b60405180910390a25050565b60008054906101000a900473ffffffffffffffffffffffffffffffffffffffff1681565b600080600160008473ffffffffffffffffffffffffffffffffffffffff1673ffffffffffffffffffffffffffffffffffffffff16815260200190815260200160002090506001600281111561056f5761056e610cb5565b5b8160060160009054906101000a900460ff16600281111561059357610592610cb5565b5b14915050919050565b60016020528060005260406000206000915090508060000180546105bf90610ec5565b80601f01602080910402602001604051908101604052809291908181526020018280546105eb90610ec5565b80156106385780601f1061060d57610100808354040283529160200191610638565b820191906000526020600020905b81548152906001019060200180831161061b57829003601f168201915b50505050509080600101805461064d90610ec5565b80601f016020809104026020016040519081016040528092919081815260200182805461067990610ec5565b80156106c65780601f1061069b576101008083540402835291602001916106c6565b820191906000526020600020905b8154815290600101906020018083116106a957829003601f168201915b5050505050908060020180546106db90610ec5565b80601f016020809104026020016040519081016040528092919081815260200182805461070790610ec5565b80156107545780601f1061072957610100808354040283529160200191610754565b820191906000526020600020905b81548152906001019060200180831161073757829003601f168201915b50505050509080600301805461076990610ec5565b80601f016020809104026020016040519081016040528092919081815260200182805461079590610ec5565b80156107e25780601f106107b7576101008083540402835291602001916107e2565b820191906000526020600020905b8154815290600101906020018083116107c557829003601f168201915b5050505050908060040180546107f790610ec5565b80601f016020809104026020016040519081016040528092919081815260200182805461082390610ec5565b80156108705780601f1061084557610100808354040283529160200191610870565b820191906000526020600020905b81548152906001019060200180831161085357829003601f168201915b5050505050908060050154908060060160009054906101000a900460ff16905087565b6000604051905090565b600080fd5b600080fd5b600080fd5b600080fd5b6000601f19601f8301169050919050565b7f4e487b7100000000000000000000000000000000000000000000000000000000600052604160045260246000fd5b6108fa826108b1565b810181811067ffffffffffffffff82111715610919576109186108c2565b5b80604052505050565b600061092c610893565b905061093882826108f1565b919050565b600067ffffffffffffffff821115610958576109576108c2565b5b610961826108b1565b9050602081019050919050565b82818337600083830152505050565b600061099061098b8461093d565b610922565b9050828152602081018484840111156109ac576109ab6108ac565b5b6109b784828561096e565b509392505050565b600082601f8301126109d4576109d36108a7565b5b81356109e484826020860161097d565b91505092915050565b6000819050919050565b610a00816109ed565b8114610a0b57600080fd5b50565b600081359050610a1d816109f7565b92915050565b60008060008060008060c08789031215610a4057610a3f61089d565b5b600087013567ffffffffffffffff811115610a5e57610a5d6108a2565b5b610a6a89828a016109bf565b965050602087013567ffffffffffffffff811115610a8b57610a8a6108a2565b5b610a9789828a016109bf565b955050604087013567ffffffffffffffff811115610ab857610ab76108a2565b5b610ac489828a016109bf565b945050606087013567ffffffffffffffff811115610ae557610ae46108a2565b5b610af189828a016109bf565b935050608087013567ffffffffffffffff811115610b1257610b116108a2565b5b610b1e89828a016109bf565b92505060a0610b2f89828a01610a0e565b9150509295509295509295565b600073ffffffffffffffffffffffffffffffffffffffff82169050919050565b6000610b6782610b3c565b9050919050565b610b7781610b5c565b8114610b8257600080fd5b50565b600081359050610b9481610b6e565b92915050565b600060208284031215610bb057610baf61089d565b5b6000610bbe84828501610b85565b91505092915050565b610bd081610b5c565b82525050565b6000602082019050610beb6000830184610bc7565b92915050565b60008115159050919050565b610c0681610bf1565b82525050565b6000602082019050610c216000830184610bfd565b92915050565b600081519050919050565b600082825260208201905092915050565b60005b83811015610c61578082015181840152602081019050610c46565b60008484015250505050565b6000610c7882610c27565b610c828185610c32565b9350610c92818560208601610c43565b610c9b816108b1565b840191505092915050565b610caf816109ed565b82525050565b7f4e487b7100000000000000000000000000000000000000000000000000000000600052602160045260246000fd5b60038110610cf557610cf4610cb5565b5b50565b6000819050610d0682610ce4565b919050565b6000610d1682610cf8565b9050919050565b610d2681610d0b565b82525050565b600060e0820190508181036000830152610d46818a610c6d565b90508181036020830152610d5a8189610c6d565b90508181036040830152610d6e8188610c6d565b90508181036060830152610d828187610c6d565b90508181036080830152610d968186610c6d565b9050610da560a0830185610ca6565b610db260c0830184610d1d565b98975050505050505050565b7f4e6174696f6e616c2049442063616e6e6f7420626520656d7074790000000000600082015250565b6000610df4601b83610c32565b9150610dff82610dbe565b602082019050919050565b60006020820190508181036000830152610e2381610de7565b9050919050565b7f456d61696c2063616e6e6f7420626520656d7074790000000000000000000000600082015250565b6000610e60601583610c32565b9150610e6b82610e2a565b602082019050919050565b60006020820190508181036000830152610e8f81610e53565b9050919050565b7f4e487b7100000000000000000000000000000000000000000000000000000000600052602260045260246000fd5b60006002820490506001821680610edd57607f821691505b602082108103610ef057610eef610e96565b5b50919050565b60008190508160005260206000209050919050565b60006020601f8301049050919050565b600082821b905092915050565b600060088302610f587fffffffffffffffffffffffffffffffffffffffffffffffffffffffffffffffff82610f1b565b610f628683610f1b565b95508019841693508086168417925050509392505050565b6000819050919050565b6000610f9f610f9a610f95846109ed565b610f7a565b6109ed565b9050919050565b6000819050919050565b610fb983610f84565b610fcd610fc582610fa6565b848454610f28565b825550505050565b600090565b610fe2610fd5565b610fed818484610fb0565b505050565b5b8181101561101157611006600082610fda565b600181019050610ff3565b5050565b601f8211156110565761102781610ef6565b61103084610f0b565b8101602085101561103f578190505b61105361104b85610f0b565b830182610ff2565b50505b505050565b600082821c905092915050565b60006110796000198460080261105b565b1980831691505092915050565b60006110928383611068565b9150826002028217905092915050565b6110ab82610c27565b67ffffffffffffffff8111156110c4576110c36108c2565b5b6110ce8254610ec5565b6110d9828285611015565b600060209050601f83116001811461110c57600084156110fa578287015190505b6111048582611086565b86555061116c565b601f19841661111a86610ef6565b60005b828110156111425784890151825560018201915060208501945060208101905061111d565b8683101561115f578489015161115b601f891682611068565b8355505b6001600288020188555050505b505050505050565b6000604082019050818103600083015261118e8185610c6d565b905081810360208301526111a28184610c6d565b90509392505050565b7f4f6e6c79204e52422063616e20706572666f726d207468697320616374696f6e600082015250565b60006111e1602083610c32565b91506111ec826111ab565b602082019050919050565b60006020820190508181036000830152611210816111d4565b9050919050565b7f436974697a656e20697320616c72656164792076657269666965640000000000600082015250565b600061124d601b83610c32565b915061125882611217565b602082019050919050565b6000602082019050818103600083015261127c81611240565b9050919050565b6000815461129081610ec5565b61129a8186610c32565b945060018216600081146112b557600181146112cb576112fe565b60ff1983168652811515602002860193506112fe565b6112d485610ef6565b60005b838110156112f6578154818901526001820191506020810190506112d7565b808801955050505b50505092915050565b600060208201905081810360008301526113218184611283565b90509291505056fea2646970667358221220325361f8cd61bba1eac6388ec3ef2adfa4f10b92dc44a84fb9de134f094d515764736f6c63430008180033",
  "linkReferences": {},
  "deployedLinkReferences": {}
}