{
  "_format": "hh-sol-artifact-1",
  "contractName": "DocumentNFT",
  "sourceName": "contracts/DocumentNFT.sol",
  "abi": [
    {
      "inputs": [
        {
          "internalType": "address",
          "name": "_verifier",
          "type": "address"
        }
      ],
      "stateMutability": "nonpayable",
      "type": "constructor"
    },
    {
      "anonymous": false,
      "inputs": [
        {
          "indexed": true,
          "internalType": "address",
          "name": "owner",
          "type": "address"
        },
        {
          "indexed": true,
          "internalType": "address",
          "name": "approved",
          "type": "address"
        },
        {
          "indexed": true,
          "internalType": "uint256",
          "name": "tokenId",
          "type": "uint256"
        }
      ],
      "name": "Approval",
      "type": "event"
    },
    {
      "anonymous": false,
      "inputs": [
        {
          "indexed": true,
          "internalType": "address",
          "name": "owner",
          "type": "address"
        },
        {
          "indexed": true,
          "internalType": "address",
          "name": "operator",
          "type": "address"
        },
        {
          "indexed": false,
          "internalType": "bool",
          "name": "approved",
          "type": "bool"
        }
      ],
      "name": "ApprovalForAll",
      "type": "event"
    },
    {
      "anonymous": false,
      "inputs": [
        {
          "indexed": false,
          "internalType": "uint256",
          "name": "tokenId",
          "type": "uint256"
        }
      ],
      "name": "DocumentVerified",
      "type": "event"
    },
    {
      "anonymous": false,
      "inputs": [
        {
          "indexed": true,
          "internalType": "address",
          "name": "previousOwner",
          "type": "address"
        },
        {
          "indexed": true,
          "internalType": "address",
          "name": "newOwner",
          "type": "address"
        }
      ],
      "name": "OwnershipTransferred",
      "type": "event"
    },
    {
      "anonymous": false,
      "inputs": [
        {
          "indexed": true,
          "internalType": "address",
          "name": "from",
          "type": "address"
        },
        {
          "indexed": true,
          "internalType": "address",
          "name": "to",
          "type": "address"
        },
        {
          "indexed": true,
          "internalType": "uint256",
          "name": "tokenId",
          "type": "uint256"
        }
      ],
      "name": "Transfer",
      "type": "event"
    },
    {
      "inputs": [
        {
          "internalType": "address",
          "name": "to",
          "type": "address"
        },
        {
          "internalType": "uint256",
          "name": "tokenId",
          "type": "uint256"
        }
      ],
      "name": "approve",
      "outputs": [],
      "stateMutability": "nonpayable",
      "type": "function"
    },
    {
      "inputs": [
        {
          "internalType": "address",
          "name": "owner",
          "type": "address"
        }
      ],
      "name": "balanceOf",
      "outputs": [
        {
          "internalType": "uint256",
          "name": "",
          "type": "uint256"
        }
      ],
      "stateMutability": "view",
      "type": "function"
    },
    {
      "inputs": [
        {
          "internalType": "uint256",
          "name": "tokenId",
          "type": "uint256"
        }
      ],
      "name": "getApproved",
      "outputs": [
        {
          "internalType": "address",
          "name": "",
          "type": "address"
        }
      ],
      "stateMutability": "view",
      "type": "function"
    },
    {
      "inputs": [
        {
          "internalType": "uint256",
          "name": "tokenId",
          "type": "uint256"
        }
      ],
      "name": "getDocumentDetails",
      "outputs": [
        {
          "components": [
            {
              "internalType": "string",
              "name": "url",
              "type": "string"
            },
            {
              "internalType": "string",
              "name": "metadataHash",
              "type": "string"
            },
            {
              "internalType": "bool",
              "name": "isVerified",
              "type": "bool"
            }
          ],
          "internalType": "struct DocumentNFT.Document",
          "name": "document",
          "type": "tuple"
        }
      ],
      "stateMutability": "view",
      "type": "function"
    },
    {
      "inputs": [
        {
          "internalType": "address",
          "name": "owner",
          "type": "address"
        },
        {
          "internalType": "address",
          "name": "operator",
          "type": "address"
        }
      ],
      "name": "isApprovedForAll",
      "outputs": [
        {
          "internalType": "bool",
          "name": "",
          "type": "bool"
        }
      ],
      "stateMutability": "view",
      "type": "function"
    },
    {
      "inputs": [
        {
          "internalType": "address",
          "name": "to",
          "type": "address"
        },
        {
          "internalType": "string",
          "name": "documentUrl",
          "type": "string"
        },
        {
          "internalType": "string",
          "name": "metadataHash",
          "type": "string"
        }
      ],
      "name": "mintDocumentNFT",
      "outputs": [
        {
          "internalType": "uint256",
          "name": "",
          "type": "uint256"
        }
      ],
      "stateMutability": "nonpayable",
      "type": "function"
    },
    {
      "inputs": [],
      "name": "name",
      "outputs": [
        {
          "internalType": "string",
          "name": "",
          "type": "string"
        }
      ],
      "stateMutability": "view",
      "type": "function"
    },
    {
      "inputs": [],
      "name": "owner",
      "outputs": [
        {
          "internalType": "address",
          "name": "",
          "type": "address"
        }
      ],
      "stateMutability": "view",
      "type": "function"
    },
    {
      "inputs": [
        {
          "internalType": "uint256",
          "name": "tokenId",
          "type": "uint256"
        }
      ],
      "name": "ownerOf",
      "outputs": [
        {
          "internalType": "address",
          "name": "",
          "type": "address"
        }
      ],
      "stateMutability": "view",
      "type": "function"
    },
    {
      "inputs": [],
      "name": "renounceOwnership",
      "outputs": [],
      "stateMutability": "nonpayable",
      "type": "function"
    },
    {
      "inputs": [
        {
          "internalType": "address",
          "name": "from",
          "type": "address"
        },
        {
          "internalType": "address",
          "name": "to",
          "type": "address"
        },
        {
          "internalType": "uint256",
          "name": "tokenId",
          "type": "uint256"
        }
      ],
      "name": "safeTransferFrom",
      "outputs": [],
      "stateMutability": "nonpayable",
      "type": "function"
    },
    {
      "inputs": [
        {
          "internalType": "address",
          "name": "from",
          "type": "address"
        },
        {
          "internalType": "address",
          "name": "to",
          "type": "address"
        },
        {
          "internalType": "uint256",
          "name": "tokenId",
          "type": "uint256"
        },
        {
          "internalType": "bytes",
          "name": "data",
          "type": "bytes"
        }
      ],
      "name": "safeTransferFrom",
      "outputs": [],
      "stateMutability": "nonpayable",
      "type": "function"
    },
    {
      "inputs": [
        {
          "internalType": "address",
          "name": "operator",
          "type": "address"
        },
        {
          "internalType": "bool",
          "name": "approved",
          "type": "bool"
        }
      ],
      "name": "setApprovalForAll",
      "outputs": [],
      "stateMutability": "nonpayable",
      "type": "function"
    },
    {
      "inputs": [
        {
          "internalType": "address",
          "name": "newVerifier",
          "type": "address"
        }
      ],
      "name": "setVerifier",
      "outputs": [],
      "stateMutability": "nonpayable",
      "type": "function"
    },
    {
      "inputs": [
        {
          "internalType": "bytes4",
          "name": "interfaceId",
          "type": "bytes4"
        }
      ],
      "name": "supportsInterface",
      "outputs": [
        {
          "internalType": "bool",
          "name": "",
          "type": "bool"
        }
      ],
      "stateMutability": "view",
      "type": "function"
    },
    {
      "inputs": [],
      "name": "symbol",
      "outputs": [
        {
          "internalType": "string",
          "name": "",
          "type": "string"
        }
      ],
      "stateMutability": "view",
      "type": "function"
    },
    {
      "inputs": [
        {
          "internalType": "uint256",
          "name": "tokenId",
          "type": "uint256"
        }
      ],
      "name": "tokenURI",
      "outputs": [
        {
          "internalType": "string",
          "name": "",
          "type": "string"
        }
      ],
      "stateMutability": "view",
      "type": "function"
    },
    {
      "inputs": [
        {
          "internalType": "address",
          "name": "from",
          "type": "address"
        },
        {
          "internalType": "address",
          "name": "to",
          "type": "address"
        },
        {
          "internalType": "uint256",
          "name": "tokenId",
          "type": "uint256"
        }
      ],
      "name": "transferFrom",
      "outputs": [],
      "stateMutability": "nonpayable",
      "type": "function"
    },
    {
      "inputs": [
        {
          "internalType": "address",
          "name": "newOwner",
          "type": "address"
        }
      ],
      "name": "transferOwnership",
      "outputs": [],
      "stateMutability": "nonpayable",
      "type": "function"
    },
    {
      "inputs": [],
      "name": "verifier",
      "outputs": [
        {
          "internalType": "address",
          "name": "",
          "type": "address"
        }
      ],
      "stateMutability": "view",
      "type": "function"
    },
    {
      "inputs": [
        {
          "internalType": "uint256",
          "name": "tokenId",
          "type": "uint256"
        }
      ],
      "name": "verifyDocument",
      "outputs": [],
      "stateMutability": "nonpayable",
      "type": "function"
    },
    {
      "inputs": [
        {
          "internalType": "uint256",
          "name": "tokenId",
          "type": "uint256"
        }
      ],
      "name": "viewDocument",
      "outputs": [
        {
          "internalType": "string",
          "name": "documentUrl",
          "type": "string"
        },
        {
          "internalType": "string",
          "name": "metadataHash",
          "type": "string"
        },
        {
          "internalType": "bool",
          "name": "isVerified",
          "type": "bool"
        }
      ],
      "stateMutability": "view",
      "type": "function"
    }
  ],
  "bytecode": "0x60806040523480156200001157600080fd5b5060405162003c8f38038062003c8f833981810160405281019062000037919062000269565b6040518060400160405280600b81526020017f446f63756d656e744e46540000000000000000000000000000000000000000008152506040518060400160405280600681526020017f444f434e465400000000000000000000000000000000000000000000000000008152508160009081620000b4919062000515565b508060019081620000c6919062000515565b505050620000e9620000dd6200013160201b60201c565b6200013960201b60201c565b80600860006101000a81548173ffffffffffffffffffffffffffffffffffffffff021916908373ffffffffffffffffffffffffffffffffffffffff16021790555050620005fc565b600033905090565b6000600660009054906101000a900473ffffffffffffffffffffffffffffffffffffffff16905081600660006101000a81548173ffffffffffffffffffffffffffffffffffffffff021916908373ffffffffffffffffffffffffffffffffffffffff1602179055508173ffffffffffffffffffffffffffffffffffffffff168173ffffffffffffffffffffffffffffffffffffffff167f8be0079c531659141344cd1fd0a4f28419497f9722a3daafe3b4186f6b6457e060405160405180910390a35050565b600080fd5b600073ffffffffffffffffffffffffffffffffffffffff82169050919050565b6000620002318262000204565b9050919050565b620002438162000224565b81146200024f57600080fd5b50565b600081519050620002638162000238565b92915050565b600060208284031215620002825762000281620001ff565b5b6000620002928482850162000252565b91505092915050565b600081519050919050565b7f4e487b7100000000000000000000000000000000000000000000000000000000600052604160045260246000fd5b7f4e487b7100000000000000000000000000000000000000000000000000000000600052602260045260246000fd5b600060028204905060018216806200031d57607f821691505b602082108103620003335762000332620002d5565b5b50919050565b60008190508160005260206000209050919050565b60006020601f8301049050919050565b600082821b905092915050565b6000600883026200039d7fffffffffffffffffffffffffffffffffffffffffffffffffffffffffffffffff826200035e565b620003a986836200035e565b95508019841693508086168417925050509392505050565b6000819050919050565b6000819050919050565b6000620003f6620003f0620003ea84620003c1565b620003cb565b620003c1565b9050919050565b6000819050919050565b6200041283620003d5565b6200042a6200042182620003fd565b8484546200036b565b825550505050565b600090565b6200044162000432565b6200044e81848462000407565b505050565b5b8181101562000476576200046a60008262000437565b60018101905062000454565b5050565b601f821115620004c5576200048f8162000339565b6200049a846200034e565b81016020851015620004aa578190505b620004c2620004b9856200034e565b83018262000453565b50505b505050565b600082821c905092915050565b6000620004ea60001984600802620004ca565b1980831691505092915050565b6000620005058383620004d7565b9150826002028217905092915050565b62000520826200029b565b67ffffffffffffffff8111156200053c576200053b620002a6565b5b62000548825462000304565b620005558282856200047a565b600060209050601f8311600181146200058d576000841562000578578287015190505b620005848582620004f7565b865550620005f4565b601f1984166200059d8662000339565b60005b82811015620005c757848901518255600182019150602085019450602081019050620005a0565b86831015620005e75784890151620005e3601f891682620004d7565b8355505b6001600288020188555050505b505050505050565b613683806200060c6000396000f3fe608060405234801561001057600080fd5b50600436106101425760003560e01c806370a08231116100b8578063a22cb4651161007c578063a22cb46514610377578063b88d4fde14610393578063be9abd2a146103af578063c87b56dd146103df578063e985e9c51461040f578063f2fde38b1461043f57610142565b806370a08231146102d1578063715018a61461030157806380ede3291461030b5780638da5cb5b1461033b57806395d89b411461035957610142565b806323b872dd1161010a57806323b872dd146102135780632b7ac3f31461022f57806342842e0e1461024d5780635437988d146102695780636352211e146102855780636dda61d9146102b557610142565b806301ffc9a71461014757806306fdde0314610177578063081812fc14610195578063095ea7b3146101c557806318939b5e146101e1575b600080fd5b610161600480360381019061015c91906121a7565b61045b565b60405161016e91906121ef565b60405180910390f35b61017f61053d565b60405161018c919061229a565b60405180910390f35b6101af60048036038101906101aa91906122f2565b6105cf565b6040516101bc9190612360565b60405180910390f35b6101df60048036038101906101da91906123a7565b610615565b005b6101fb60048036038101906101f691906122f2565b61072c565b60405161020a939291906123e7565b60405180910390f35b61022d6004803603810190610228919061242c565b6108f7565b005b610237610957565b6040516102449190612360565b60405180910390f35b6102676004803603810190610262919061242c565b61097d565b005b610283600480360381019061027e919061247f565b61099d565b005b61029f600480360381019061029a91906122f2565b6109e9565b6040516102ac9190612360565b60405180910390f35b6102cf60048036038101906102ca91906122f2565b610a6f565b005b6102eb60048036038101906102e6919061247f565b610c14565b6040516102f891906124bb565b60405180910390f35b610309610ccb565b005b610325600480360381019061032091906122f2565b610cdf565b6040516103329190612586565b60405180910390f35b610343610e93565b6040516103509190612360565b60405180910390f35b610361610ebd565b60405161036e919061229a565b60405180910390f35b610391600480360381019061038c91906125d4565b610f4f565b005b6103ad60048036038101906103a89190612749565b610f65565b005b6103c960048036038101906103c4919061286d565b610fc7565b6040516103d691906124bb565b60405180910390f35b6103f960048036038101906103f491906122f2565b611087565b604051610406919061229a565b60405180910390f35b610429600480360381019061042491906128f8565b6110ef565b60405161043691906121ef565b60405180910390f35b6104596004803603810190610454919061247f565b611183565b005b60007f80ac58cd000000000000000000000000000000000000000000000000000000007bffffffffffffffffffffffffffffffffffffffffffffffffffffffff1916827bffffffffffffffffffffffffffffffffffffffffffffffffffffffff1916148061052657507f5b5e139f000000000000000000000000000000000000000000000000000000007bffffffffffffffffffffffffffffffffffffffffffffffffffffffff1916827bffffffffffffffffffffffffffffffffffffffffffffffffffffffff1916145b80610536575061053582611206565b5b9050919050565b60606000805461054c90612967565b80601f016020809104026020016040519081016040528092919081815260200182805461057890612967565b80156105c55780601f1061059a576101008083540402835291602001916105c5565b820191906000526020600020905b8154815290600101906020018083116105a857829003601f168201915b5050505050905090565b60006105da82611270565b6004600083815260200190815260200160002060009054906101000a900473ffffffffffffffffffffffffffffffffffffffff169050919050565b6000610620826109e9565b90508073ffffffffffffffffffffffffffffffffffffffff168373ffffffffffffffffffffffffffffffffffffffff1603610690576040517f08c379a000000000000000000000000000000000000000000000000000000000815260040161068790612a0a565b60405180910390fd5b8073ffffffffffffffffffffffffffffffffffffffff166106af6112bb565b73ffffffffffffffffffffffffffffffffffffffff1614806106de57506106dd816106d86112bb565b6110ef565b5b61071d576040517f08c379a000000000000000000000000000000000000000000000000000000000815260040161071490612a9c565b60405180910390fd5b61072783836112c3565b505050565b606080600061073a8461137c565b610779576040517f08c379a000000000000000000000000000000000000000000000000000000000815260040161077090612b2e565b60405180910390fd5b6000600960008681526020019081526020016000206040518060600160405290816000820180546107a990612967565b80601f01602080910402602001604051908101604052809291908181526020018280546107d590612967565b80156108225780601f106107f757610100808354040283529160200191610822565b820191906000526020600020905b81548152906001019060200180831161080557829003601f168201915b5050505050815260200160018201805461083b90612967565b80601f016020809104026020016040519081016040528092919081815260200182805461086790612967565b80156108b45780601f10610889576101008083540402835291602001916108b4565b820191906000526020600020905b81548152906001019060200180831161089757829003601f168201915b505050505081526020016002820160009054906101000a900460ff1615151515815250509050806000015181602001518260400151935093509350509193909250565b6109086109026112bb565b826113bd565b610947576040517f08c379a000000000000000000000000000000000000000000000000000000000815260040161093e90612bc0565b60405180910390fd5b610952838383611452565b505050565b600860009054906101000a900473ffffffffffffffffffffffffffffffffffffffff1681565b61099883838360405180602001604052806000815250610f65565b505050565b6109a561174b565b80600860006101000a81548173ffffffffffffffffffffffffffffffffffffffff021916908373ffffffffffffffffffffffffffffffffffffffff16021790555050565b6000806109f5836117c9565b9050600073ffffffffffffffffffffffffffffffffffffffff168173ffffffffffffffffffffffffffffffffffffffff1603610a66576040517f08c379a0000000000000000000000000000000000000000000000000000000008152600401610a5d90612c2c565b60405180910390fd5b80915050919050565b600860009054906101000a900473ffffffffffffffffffffffffffffffffffffffff1673ffffffffffffffffffffffffffffffffffffffff163373ffffffffffffffffffffffffffffffffffffffff1614610aff576040517f08c379a0000000000000000000000000000000000000000000000000000000008152600401610af690612cbe565b60405180910390fd5b610b088161137c565b610b47576040517f08c379a0000000000000000000000000000000000000000000000000000000008152600401610b3e90612b2e565b60405180910390fd5b6009600082815260200190815260200160002060020160009054906101000a900460ff1615610bab576040517f08c379a0000000000000000000000000000000000000000000000000000000008152600401610ba290612d50565b60405180910390fd5b60016009600083815260200190815260200160002060020160006101000a81548160ff0219169083151502179055507f4b93fd5160fbc8b35d08aff650902cf41c86e6df325a3eabab5bcca811976cf781604051610c0991906124bb565b60405180910390a150565b60008073ffffffffffffffffffffffffffffffffffffffff168273ffffffffffffffffffffffffffffffffffffffff1603610c84576040517f08c379a0000000000000000000000000000000000000000000000000000000008152600401610c7b90612de2565b60405180910390fd5b600360008373ffffffffffffffffffffffffffffffffffffffff1673ffffffffffffffffffffffffffffffffffffffff168152602001908152602001600020549050919050565b610cd361174b565b610cdd6000611806565b565b610ce7612118565b610cf08261137c565b610d2f576040517f08c379a0000000000000000000000000000000000000000000000000000000008152600401610d2690612b2e565b60405180910390fd5b60096000838152602001908152602001600020604051806060016040529081600082018054610d5d90612967565b80601f0160208091040260200160405190810160405280929190818152602001828054610d8990612967565b8015610dd65780601f10610dab57610100808354040283529160200191610dd6565b820191906000526020600020905b815481529060010190602001808311610db957829003601f168201915b50505050508152602001600182018054610def90612967565b80601f0160208091040260200160405190810160405280929190818152602001828054610e1b90612967565b8015610e685780601f10610e3d57610100808354040283529160200191610e68565b820191906000526020600020905b815481529060010190602001808311610e4b57829003601f168201915b505050505081526020016002820160009054906101000a900460ff1615151515815250509050919050565b6000600660009054906101000a900473ffffffffffffffffffffffffffffffffffffffff16905090565b606060018054610ecc90612967565b80601f0160208091040260200160405190810160405280929190818152602001828054610ef890612967565b8015610f455780601f10610f1a57610100808354040283529160200191610f45565b820191906000526020600020905b815481529060010190602001808311610f2857829003601f168201915b5050505050905090565b610f61610f5a6112bb565b83836118cc565b5050565b610f76610f706112bb565b836113bd565b610fb5576040517f08c379a0000000000000000000000000000000000000000000000000000000008152600401610fac90612bc0565b60405180910390fd5b610fc184848484611a38565b50505050565b6000610fd161174b565b600160076000828254610fe49190612e31565b9250508190555060006007549050610ffc8582611a94565b6040518060600160405280858152602001848152602001600015158152506009600083815260200190815260200160002060008201518160000190816110429190613011565b5060208201518160010190816110589190613011565b5060408201518160020160006101000a81548160ff021916908315150217905550905050809150509392505050565b606061109282611270565b600061109c611ab2565b905060008151116110bc57604051806020016040528060008152506110e7565b806110c684611ac9565b6040516020016110d792919061311f565b6040516020818303038152906040525b915050919050565b6000600560008473ffffffffffffffffffffffffffffffffffffffff1673ffffffffffffffffffffffffffffffffffffffff16815260200190815260200160002060008373ffffffffffffffffffffffffffffffffffffffff1673ffffffffffffffffffffffffffffffffffffffff16815260200190815260200160002060009054906101000a900460ff16905092915050565b61118b61174b565b600073ffffffffffffffffffffffffffffffffffffffff168173ffffffffffffffffffffffffffffffffffffffff16036111fa576040517f08c379a00000000000000000000000000000000000000000000000000000000081526004016111f1906131b5565b60405180910390fd5b61120381611806565b50565b60007f01ffc9a7000000000000000000000000000000000000000000000000000000007bffffffffffffffffffffffffffffffffffffffffffffffffffffffff1916827bffffffffffffffffffffffffffffffffffffffffffffffffffffffff1916149050919050565b6112798161137c565b6112b8576040517f08c379a00000000000000000000000000000000000000000000000000000000081526004016112af90612c2c565b60405180910390fd5b50565b600033905090565b816004600083815260200190815260200160002060006101000a81548173ffffffffffffffffffffffffffffffffffffffff021916908373ffffffffffffffffffffffffffffffffffffffff160217905550808273ffffffffffffffffffffffffffffffffffffffff16611336836109e9565b73ffffffffffffffffffffffffffffffffffffffff167f8c5be1e5ebec7d5bd14f71427d1e84f3dd0314c0f7b2291e5b200ac8c7c3b92560405160405180910390a45050565b60008073ffffffffffffffffffffffffffffffffffffffff1661139e836117c9565b73ffffffffffffffffffffffffffffffffffffffff1614159050919050565b6000806113c9836109e9565b90508073ffffffffffffffffffffffffffffffffffffffff168473ffffffffffffffffffffffffffffffffffffffff16148061140b575061140a81856110ef565b5b8061144957508373ffffffffffffffffffffffffffffffffffffffff16611431846105cf565b73ffffffffffffffffffffffffffffffffffffffff16145b91505092915050565b8273ffffffffffffffffffffffffffffffffffffffff16611472826109e9565b73ffffffffffffffffffffffffffffffffffffffff16146114c8576040517f08c379a00000000000000000000000000000000000000000000000000000000081526004016114bf90613247565b60405180910390fd5b600073ffffffffffffffffffffffffffffffffffffffff168273ffffffffffffffffffffffffffffffffffffffff1603611537576040517f08c379a000000000000000000000000000000000000000000000000000000000815260040161152e906132d9565b60405180910390fd5b6115448383836001611b97565b8273ffffffffffffffffffffffffffffffffffffffff16611564826109e9565b73ffffffffffffffffffffffffffffffffffffffff16146115ba576040517f08c379a00000000000000000000000000000000000000000000000000000000081526004016115b190613247565b60405180910390fd5b6004600082815260200190815260200160002060006101000a81549073ffffffffffffffffffffffffffffffffffffffff02191690556001600360008573ffffffffffffffffffffffffffffffffffffffff1673ffffffffffffffffffffffffffffffffffffffff168152602001908152602001600020600082825403925050819055506001600360008473ffffffffffffffffffffffffffffffffffffffff1673ffffffffffffffffffffffffffffffffffffffff16815260200190815260200160002060008282540192505081905550816002600083815260200190815260200160002060006101000a81548173ffffffffffffffffffffffffffffffffffffffff021916908373ffffffffffffffffffffffffffffffffffffffff160217905550808273ffffffffffffffffffffffffffffffffffffffff168473ffffffffffffffffffffffffffffffffffffffff167fddf252ad1be2c89b69c2b068fc378daa952ba7f163c4a11628f55a4df523b3ef60405160405180910390a46117468383836001611b9d565b505050565b6117536112bb565b73ffffffffffffffffffffffffffffffffffffffff16611771610e93565b73ffffffffffffffffffffffffffffffffffffffff16146117c7576040517f08c379a00000000000000000000000000000000000000000000000000000000081526004016117be90613345565b60405180910390fd5b565b60006002600083815260200190815260200160002060009054906101000a900473ffffffffffffffffffffffffffffffffffffffff169050919050565b6000600660009054906101000a900473ffffffffffffffffffffffffffffffffffffffff16905081600660006101000a81548173ffffffffffffffffffffffffffffffffffffffff021916908373ffffffffffffffffffffffffffffffffffffffff1602179055508173ffffffffffffffffffffffffffffffffffffffff168173ffffffffffffffffffffffffffffffffffffffff167f8be0079c531659141344cd1fd0a4f28419497f9722a3daafe3b4186f6b6457e060405160405180910390a35050565b8173ffffffffffffffffffffffffffffffffffffffff168373ffffffffffffffffffffffffffffffffffffffff160361193a576040517f08c379a0000000000000000000000000000000000000000000000000000000008152600401611931906133b1565b60405180910390fd5b80600560008573ffffffffffffffffffffffffffffffffffffffff1673ffffffffffffffffffffffffffffffffffffffff16815260200190815260200160002060008473ffffffffffffffffffffffffffffffffffffffff1673ffffffffffffffffffffffffffffffffffffffff16815260200190815260200160002060006101000a81548160ff0219169083151502179055508173ffffffffffffffffffffffffffffffffffffffff168373ffffffffffffffffffffffffffffffffffffffff167f17307eab39ab6107e8899845ad3d59bd9653f200f220920489ca2b5937696c3183604051611a2b91906121ef565b60405180910390a3505050565b611a43848484611452565b611a4f84848484611ba3565b611a8e576040517f08c379a0000000000000000000000000000000000000000000000000000000008152600401611a8590613443565b60405180910390fd5b50505050565b611aae828260405180602001604052806000815250611d2a565b5050565b606060405180602001604052806000815250905090565b606060006001611ad884611d85565b01905060008167ffffffffffffffff811115611af757611af661261e565b5b6040519080825280601f01601f191660200182016040528015611b295781602001600182028036833780820191505090505b509050600082602001820190505b600115611b8c578080600190039150507f3031323334353637383961626364656600000000000000000000000000000000600a86061a8153600a8581611b8057611b7f613463565b5b04945060008503611b37575b819350505050919050565b50505050565b50505050565b6000611bc48473ffffffffffffffffffffffffffffffffffffffff16611ed8565b15611d1d578373ffffffffffffffffffffffffffffffffffffffff1663150b7a02611bed6112bb565b8786866040518563ffffffff1660e01b8152600401611c0f94939291906134e7565b6020604051808303816000875af1925050508015611c4b57506040513d601f19601f82011682018060405250810190611c489190613548565b60015b611ccd573d8060008114611c7b576040519150601f19603f3d011682016040523d82523d6000602084013e611c80565b606091505b506000815103611cc5576040517f08c379a0000000000000000000000000000000000000000000000000000000008152600401611cbc90613443565b60405180910390fd5b805181602001fd5b63150b7a0260e01b7bffffffffffffffffffffffffffffffffffffffffffffffffffffffff1916817bffffffffffffffffffffffffffffffffffffffffffffffffffffffff191614915050611d22565b600190505b949350505050565b611d348383611efb565b611d416000848484611ba3565b611d80576040517f08c379a0000000000000000000000000000000000000000000000000000000008152600401611d7790613443565b60405180910390fd5b505050565b600080600090507a184f03e93ff9f4daa797ed6e38ed64bf6a1f0100000000000000008310611de3577a184f03e93ff9f4daa797ed6e38ed64bf6a1f0100000000000000008381611dd957611dd8613463565b5b0492506040810190505b6d04ee2d6d415b85acef81000000008310611e20576d04ee2d6d415b85acef81000000008381611e1657611e15613463565b5b0492506020810190505b662386f26fc100008310611e4f57662386f26fc100008381611e4557611e44613463565b5b0492506010810190505b6305f5e1008310611e78576305f5e1008381611e6e57611e6d613463565b5b0492506008810190505b6127108310611e9d576127108381611e9357611e92613463565b5b0492506004810190505b60648310611ec05760648381611eb657611eb5613463565b5b0492506002810190505b600a8310611ecf576001810190505b80915050919050565b6000808273ffffffffffffffffffffffffffffffffffffffff163b119050919050565b600073ffffffffffffffffffffffffffffffffffffffff168273ffffffffffffffffffffffffffffffffffffffff1603611f6a576040517f08c379a0000000000000000000000000000000000000000000000000000000008152600401611f61906135c1565b60405180910390fd5b611f738161137c565b15611fb3576040517f08c379a0000000000000000000000000000000000000000000000000000000008152600401611faa9061362d565b60405180910390fd5b611fc1600083836001611b97565b611fca8161137c565b1561200a576040517f08c379a00000000000000000000000000000000000000000000000000000000081526004016120019061362d565b60405180910390fd5b6001600360008473ffffffffffffffffffffffffffffffffffffffff1673ffffffffffffffffffffffffffffffffffffffff16815260200190815260200160002060008282540192505081905550816002600083815260200190815260200160002060006101000a81548173ffffffffffffffffffffffffffffffffffffffff021916908373ffffffffffffffffffffffffffffffffffffffff160217905550808273ffffffffffffffffffffffffffffffffffffffff16600073ffffffffffffffffffffffffffffffffffffffff167fddf252ad1be2c89b69c2b068fc378daa952ba7f163c4a11628f55a4df523b3ef60405160405180910390a4612114600083836001611b9d565b5050565b604051806060016040528060608152602001606081526020016000151581525090565b6000604051905090565b600080fd5b600080fd5b60007fffffffff0000000000000000000000000000000000000000000000000000000082169050919050565b6121848161214f565b811461218f57600080fd5b50565b6000813590506121a18161217b565b92915050565b6000602082840312156121bd576121bc612145565b5b60006121cb84828501612192565b91505092915050565b60008115159050919050565b6121e9816121d4565b82525050565b600060208201905061220460008301846121e0565b92915050565b600081519050919050565b600082825260208201905092915050565b60005b83811015612244578082015181840152602081019050612229565b60008484015250505050565b6000601f19601f8301169050919050565b600061226c8261220a565b6122768185612215565b9350612286818560208601612226565b61228f81612250565b840191505092915050565b600060208201905081810360008301526122b48184612261565b905092915050565b6000819050919050565b6122cf816122bc565b81146122da57600080fd5b50565b6000813590506122ec816122c6565b92915050565b60006020828403121561230857612307612145565b5b6000612316848285016122dd565b91505092915050565b600073ffffffffffffffffffffffffffffffffffffffff82169050919050565b600061234a8261231f565b9050919050565b61235a8161233f565b82525050565b60006020820190506123756000830184612351565b92915050565b6123848161233f565b811461238f57600080fd5b50565b6000813590506123a18161237b565b92915050565b600080604083850312156123be576123bd612145565b5b60006123cc85828601612392565b92505060206123dd858286016122dd565b9150509250929050565b600060608201905081810360008301526124018186612261565b905081810360208301526124158185612261565b905061242460408301846121e0565b949350505050565b60008060006060848603121561244557612444612145565b5b600061245386828701612392565b935050602061246486828701612392565b9250506040612475868287016122dd565b9150509250925092565b60006020828403121561249557612494612145565b5b60006124a384828501612392565b91505092915050565b6124b5816122bc565b82525050565b60006020820190506124d060008301846124ac565b92915050565b600082825260208201905092915050565b60006124f28261220a565b6124fc81856124d6565b935061250c818560208601612226565b61251581612250565b840191505092915050565b612529816121d4565b82525050565b6000606083016000830151848203600086015261254c82826124e7565b9150506020830151848203602086015261256682826124e7565b915050604083015161257b6040860182612520565b508091505092915050565b600060208201905081810360008301526125a0818461252f565b905092915050565b6125b1816121d4565b81146125bc57600080fd5b50565b6000813590506125ce816125a8565b92915050565b600080604083850312156125eb576125ea612145565b5b60006125f985828601612392565b925050602061260a858286016125bf565b9150509250929050565b600080fd5b600080fd5b7f4e487b7100000000000000000000000000000000000000000000000000000000600052604160045260246000fd5b61265682612250565b810181811067ffffffffffffffff821117156126755761267461261e565b5b80604052505050565b600061268861213b565b9050612694828261264d565b919050565b600067ffffffffffffffff8211156126b4576126b361261e565b5b6126bd82612250565b9050602081019050919050565b82818337600083830152505050565b60006126ec6126e784612699565b61267e565b90508281526020810184848401111561270857612707612619565b5b6127138482856126ca565b509392505050565b600082601f8301126127305761272f612614565b5b81356127408482602086016126d9565b91505092915050565b6000806000806080858703121561276357612762612145565b5b600061277187828801612392565b945050602061278287828801612392565b9350506040612793878288016122dd565b925050606085013567ffffffffffffffff8111156127b4576127b361214a565b5b6127c08782880161271b565b91505092959194509250565b600067ffffffffffffffff8211156127e7576127e661261e565b5b6127f082612250565b9050602081019050919050565b600061281061280b846127cc565b61267e565b90508281526020810184848401111561282c5761282b612619565b5b6128378482856126ca565b509392505050565b600082601f83011261285457612853612614565b5b81356128648482602086016127fd565b91505092915050565b60008060006060848603121561288657612885612145565b5b600061289486828701612392565b935050602084013567ffffffffffffffff8111156128b5576128b461214a565b5b6128c18682870161283f565b925050604084013567ffffffffffffffff8111156128e2576128e161214a565b5b6128ee8682870161283f565b9150509250925092565b6000806040838503121561290f5761290e612145565b5b600061291d85828601612392565b925050602061292e85828601612392565b9150509250929050565b7f4e487b7100000000000000000000000000000000000000000000000000000000600052602260045260246000fd5b6000600282049050600182168061297f57607f821691505b60208210810361299257612991612938565b5b50919050565b7f4552433732313a20617070726f76616c20746f2063757272656e74206f776e6560008201527f7200000000000000000000000000000000000000000000000000000000000000602082015250565b60006129f4602183612215565b91506129ff82612998565b604082019050919050565b60006020820190508181036000830152612a23816129e7565b9050919050565b7f4552433732313a20617070726f76652063616c6c6572206973206e6f7420746f60008201527f6b656e206f776e6572206f7220617070726f76656420666f7220616c6c000000602082015250565b6000612a86603d83612215565b9150612a9182612a2a565b604082019050919050565b60006020820190508181036000830152612ab581612a79565b9050919050565b7f446f63756d656e744e46543a20446f63756d656e7420646f6573206e6f74206560008201527f7869737400000000000000000000000000000000000000000000000000000000602082015250565b6000612b18602483612215565b9150612b2382612abc565b604082019050919050565b60006020820190508181036000830152612b4781612b0b565b9050919050565b7f4552433732313a2063616c6c6572206973206e6f7420746f6b656e206f776e6560008201527f72206f7220617070726f76656400000000000000000000000000000000000000602082015250565b6000612baa602d83612215565b9150612bb582612b4e565b604082019050919050565b60006020820190508181036000830152612bd981612b9d565b9050919050565b7f4552433732313a20696e76616c696420746f6b656e2049440000000000000000600082015250565b6000612c16601883612215565b9150612c2182612be0565b602082019050919050565b60006020820190508181036000830152612c4581612c09565b9050919050565b7f446f63756d656e744e46543a204f6e6c792074686520617574686f72697a656460008201527f2076657269666965722063616e20766572696679000000000000000000000000602082015250565b6000612ca8603483612215565b9150612cb382612c4c565b604082019050919050565b60006020820190508181036000830152612cd781612c9b565b9050919050565b7f446f63756d656e744e46543a20446f63756d656e7420697320616c726561647960008201527f2076657269666965640000000000000000000000000000000000000000000000602082015250565b6000612d3a602983612215565b9150612d4582612cde565b604082019050919050565b60006020820190508181036000830152612d6981612d2d565b9050919050565b7f4552433732313a2061646472657373207a65726f206973206e6f74206120766160008201527f6c6964206f776e65720000000000000000000000000000000000000000000000602082015250565b6000612dcc602983612215565b9150612dd782612d70565b604082019050919050565b60006020820190508181036000830152612dfb81612dbf565b9050919050565b7f4e487b7100000000000000000000000000000000000000000000000000000000600052601160045260246000fd5b6000612e3c826122bc565b9150612e47836122bc565b9250828201905080821115612e5f57612e5e612e02565b5b92915050565b60008190508160005260206000209050919050565b60006020601f8301049050919050565b600082821b905092915050565b600060088302612ec77fffffffffffffffffffffffffffffffffffffffffffffffffffffffffffffffff82612e8a565b612ed18683612e8a565b95508019841693508086168417925050509392505050565b6000819050919050565b6000612f0e612f09612f04846122bc565b612ee9565b6122bc565b9050919050565b6000819050919050565b612f2883612ef3565b612f3c612f3482612f15565b848454612e97565b825550505050565b600090565b612f51612f44565b612f5c818484612f1f565b505050565b5b81811015612f8057612f75600082612f49565b600181019050612f62565b5050565b601f821115612fc557612f9681612e65565b612f9f84612e7a565b81016020851015612fae578190505b612fc2612fba85612e7a565b830182612f61565b50505b505050565b600082821c905092915050565b6000612fe860001984600802612fca565b1980831691505092915050565b60006130018383612fd7565b9150826002028217905092915050565b61301a8261220a565b67ffffffffffffffff8111156130335761303261261e565b5b61303d8254612967565b613048828285612f84565b600060209050601f83116001811461307b5760008415613069578287015190505b6130738582612ff5565b8655506130db565b601f19841661308986612e65565b60005b828110156130b15784890151825560018201915060208501945060208101905061308c565b868310156130ce57848901516130ca601f891682612fd7565b8355505b6001600288020188555050505b505050505050565b600081905092915050565b60006130f98261220a565b61310381856130e3565b9350613113818560208601612226565b80840191505092915050565b600061312b82856130ee565b915061313782846130ee565b91508190509392505050565b7f4f776e61626c653a206e6577206f776e657220697320746865207a65726f206160008201527f6464726573730000000000000000000000000000000000000000000000000000602082015250565b600061319f602683612215565b91506131aa82613143565b604082019050919050565b600060208201905081810360008301526131ce81613192565b9050919050565b7f4552433732313a207472616e736665722066726f6d20696e636f72726563742060008201527f6f776e6572000000000000000000000000000000000000000000000000000000602082015250565b6000613231602583612215565b915061323c826131d5565b604082019050919050565b6000602082019050818103600083015261326081613224565b9050919050565b7f4552433732313a207472616e7366657220746f20746865207a65726f2061646460008201527f7265737300000000000000000000000000000000000000000000000000000000602082015250565b60006132c3602483612215565b91506132ce82613267565b604082019050919050565b600060208201905081810360008301526132f2816132b6565b9050919050565b7f4f776e61626c653a2063616c6c6572206973206e6f7420746865206f776e6572600082015250565b600061332f602083612215565b915061333a826132f9565b602082019050919050565b6000602082019050818103600083015261335e81613322565b9050919050565b7f4552433732313a20617070726f766520746f2063616c6c657200000000000000600082015250565b600061339b601983612215565b91506133a682613365565b602082019050919050565b600060208201905081810360008301526133ca8161338e565b9050919050565b7f4552433732313a207472616e7366657220746f206e6f6e20455243373231526560008201527f63656976657220696d706c656d656e7465720000000000000000000000000000602082015250565b600061342d603283612215565b9150613438826133d1565b604082019050919050565b6000602082019050818103600083015261345c81613420565b9050919050565b7f4e487b7100000000000000000000000000000000000000000000000000000000600052601260045260246000fd5b600081519050919050565b600082825260208201905092915050565b60006134b982613492565b6134c3818561349d565b93506134d3818560208601612226565b6134dc81612250565b840191505092915050565b60006080820190506134fc6000830187612351565b6135096020830186612351565b61351660408301856124ac565b818103606083015261352881846134ae565b905095945050505050565b6000815190506135428161217b565b92915050565b60006020828403121561355e5761355d612145565b5b600061356c84828501613533565b91505092915050565b7f4552433732313a206d696e7420746f20746865207a65726f2061646472657373600082015250565b60006135ab602083612215565b91506135b682613575565b602082019050919050565b600060208201905081810360008301526135da8161359e565b9050919050565b7f4552433732313a20746f6b656e20616c7265616479206d696e74656400000000600082015250565b6000613617601c83612215565b9150613622826135e1565b602082019050919050565b600060208201905081810360008301526136468161360a565b905091905056fea26469706673582212209a47ca562e84cc068f4b0296665b3f779ca8ec4e0d28fb87f5652feb588efaa364736f6c63430008180033",
  "linkReferences": {},
  "deployedLinkReferences": {}
}