{
  "_format": "hh-sol-artifact-1",
  "contractName": "NEEFLoanContract",
  "sourceName": "contracts/NEEFLoanContract.sol",
  "abi": [
    {
      "inputs": [
        {
          "internalType": "address",
          "name": "tokenAddress",
          "type": "address"
        },
        {
          "internalType": "address",
          "name": "landTitleDeedAddress",
          "type": "address"
        }
      ],
      "stateMutability": "nonpayable",
      "type": "constructor"
    },
    {
      "anonymous": false,
      "inputs": [
        {
          "indexed": true,
          "internalType": "uint256",
          "name": "loanId",
          "type": "uint256"
        },
        {
          "indexed": false,
          "internalType": "uint256",
          "name": "deedId",
          "type": "uint256"
        }
      ],
      "name": "CollateralReclaimed",
      "type": "event"
    },
    {
      "anonymous": false,
      "inputs": [
        {
          "indexed": true,
          "internalType": "uint256",
          "name": "loanId",
          "type": "uint256"
        },
        {
          "indexed": false,
          "internalType": "uint256",
          "name": "deedId",
          "type": "uint256"
        }
      ],
      "name": "CollateralSeized",
      "type": "event"
    },
    {
      "anonymous": false,
      "inputs": [
        {
          "indexed": true,
          "internalType": "uint256",
          "name": "deedId",
          "type": "uint256"
        }
      ],
      "name": "CollateralSold",
      "type": "event"
    },
    {
      "anonymous": false,
      "inputs": [
        {
          "indexed": true,
          "internalType": "uint256",
          "name": "loanId",
          "type": "uint256"
        },
        {
          "indexed": true,
          "internalType": "address",
          "name": "borrower",
          "type": "address"
        },
        {
          "indexed": false,
          "internalType": "uint256",
          "name": "amount",
          "type": "uint256"
        },
        {
          "indexed": false,
          "internalType": "enum NEEFLoanContract.LoanType",
          "name": "loanType",
          "type": "uint8"
        }
      ],
      "name": "LoanCreated",
      "type": "event"
    },
    {
      "anonymous": false,
      "inputs": [
        {
          "indexed": true,
          "internalType": "uint256",
          "name": "loanId",
          "type": "uint256"
        }
      ],
      "name": "LoanDefaulted",
      "type": "event"
    },
    {
      "anonymous": false,
      "inputs": [
        {
          "indexed": true,
          "internalType": "uint256",
          "name": "loanId",
          "type": "uint256"
        },
        {
          "indexed": false,
          "internalType": "uint256",
          "name": "amount",
          "type": "uint256"
        }
      ],
      "name": "LoanDisbursed",
      "type": "event"
    },
    {
      "anonymous": false,
      "inputs": [
        {
          "indexed": true,
          "internalType": "uint256",
          "name": "loanId",
          "type": "uint256"
        },
        {
          "indexed": false,
          "internalType": "uint256",
          "name": "repaymentAmount",
          "type": "uint256"
        }
      ],
      "name": "LoanRepaid",
      "type": "event"
    },
    {
      "inputs": [],
      "name": "GRACE_PERIOD",
      "outputs": [
        {
          "internalType": "uint256",
          "name": "",
          "type": "uint256"
        }
      ],
      "stateMutability": "view",
      "type": "function"
    },
    {
      "inputs": [],
      "name": "REDEMPTION_INTEREST",
      "outputs": [
        {
          "internalType": "uint256",
          "name": "",
          "type": "uint256"
        }
      ],
      "stateMutability": "view",
      "type": "function"
    },
    {
      "inputs": [],
      "name": "REDEMPTION_PERIOD",
      "outputs": [
        {
          "internalType": "uint256",
          "name": "",
          "type": "uint256"
        }
      ],
      "stateMutability": "view",
      "type": "function"
    },
    {
      "inputs": [],
      "name": "REPAYMENT_PERIOD",
      "outputs": [
        {
          "internalType": "uint256",
          "name": "",
          "type": "uint256"
        }
      ],
      "stateMutability": "view",
      "type": "function"
    },
    {
      "inputs": [],
      "name": "admin",
      "outputs": [
        {
          "internalType": "address",
          "name": "",
          "type": "address"
        }
      ],
      "stateMutability": "view",
      "type": "function"
    },
    {
      "inputs": [
        {
          "internalType": "address",
          "name": "",
          "type": "address"
        },
        {
          "internalType": "uint256",
          "name": "",
          "type": "uint256"
        }
      ],
      "name": "borrowerLoans",
      "outputs": [
        {
          "internalType": "uint256",
          "name": "",
          "type": "uint256"
        }
      ],
      "stateMutability": "view",
      "type": "function"
    },
    {
      "inputs": [
        {
          "internalType": "uint256",
          "name": "loanId",
          "type": "uint256"
        }
      ],
      "name": "checkForDefault",
      "outputs": [],
      "stateMutability": "nonpayable",
      "type": "function"
    },
    {
      "inputs": [
        {
          "internalType": "address",
          "name": "borrower",
          "type": "address"
        },
        {
          "internalType": "uint256",
          "name": "amount",
          "type": "uint256"
        },
        {
          "internalType": "enum NEEFLoanContract.LoanType",
          "name": "loanType",
          "type": "uint8"
        },
        {
          "internalType": "uint256",
          "name": "collateralDeedId",
          "type": "uint256"
        }
      ],
      "name": "createLoan",
      "outputs": [
        {
          "internalType": "uint256",
          "name": "",
          "type": "uint256"
        }
      ],
      "stateMutability": "nonpayable",
      "type": "function"
    },
    {
      "inputs": [
        {
          "internalType": "uint256",
          "name": "loanId",
          "type": "uint256"
        }
      ],
      "name": "disburseLoan",
      "outputs": [],
      "stateMutability": "nonpayable",
      "type": "function"
    },
    {
      "inputs": [
        {
          "internalType": "address",
          "name": "borrower",
          "type": "address"
        }
      ],
      "name": "getLoansByBorrower",
      "outputs": [
        {
          "internalType": "uint256[]",
          "name": "",
          "type": "uint256[]"
        }
      ],
      "stateMutability": "view",
      "type": "function"
    },
    {
      "inputs": [],
      "name": "landTitleDeed",
      "outputs": [
        {
          "internalType": "contract LandTitleDeed",
          "name": "",
          "type": "address"
        }
      ],
      "stateMutability": "view",
      "type": "function"
    },
    {
      "inputs": [],
      "name": "loanCounter",
      "outputs": [
        {
          "internalType": "uint256",
          "name": "",
          "type": "uint256"
        }
      ],
      "stateMutability": "view",
      "type": "function"
    },
    {
      "inputs": [
        {
          "internalType": "uint256",
          "name": "",
          "type": "uint256"
        }
      ],
      "name": "loans",
      "outputs": [
        {
          "internalType": "uint256",
          "name": "loanId",
          "type": "uint256"
        },
        {
          "internalType": "enum NEEFLoanContract.LoanType",
          "name": "loanType",
          "type": "uint8"
        },
        {
          "internalType": "address",
          "name": "borrower",
          "type": "address"
        },
        {
          "internalType": "uint256",
          "name": "amount",
          "type": "uint256"
        },
        {
          "internalType": "uint256",
          "name": "repaymentAmount",
          "type": "uint256"
        },
        {
          "internalType": "uint256",
          "name": "disbursedTimestamp",
          "type": "uint256"
        },
        {
          "internalType": "enum NEEFLoanContract.LoanStatus",
          "name": "status",
          "type": "uint8"
        },
        {
          "internalType": "uint256",
          "name": "balance",
          "type": "uint256"
        },
        {
          "internalType": "uint256",
          "name": "collateralDeedId",
          "type": "uint256"
        }
      ],
      "stateMutability": "view",
      "type": "function"
    },
    {
      "inputs": [
        {
          "internalType": "uint256",
          "name": "loanId",
          "type": "uint256"
        }
      ],
      "name": "reclaimCollateral",
      "outputs": [],
      "stateMutability": "nonpayable",
      "type": "function"
    },
    {
      "inputs": [
        {
          "internalType": "uint256",
          "name": "loanId",
          "type": "uint256"
        },
        {
          "internalType": "uint256",
          "name": "repaymentAmount",
          "type": "uint256"
        }
      ],
      "name": "repayLoan",
      "outputs": [],
      "stateMutability": "nonpayable",
      "type": "function"
    },
    {
      "inputs": [
        {
          "internalType": "uint256",
          "name": "deedId",
          "type": "uint256"
        }
      ],
      "name": "sellCollateral",
      "outputs": [],
      "stateMutability": "nonpayable",
      "type": "function"
    },
    {
      "inputs": [],
      "name": "token",
      "outputs": [
        {
          "internalType": "contract MalawiKwachaToken",
          "name": "",
          "type": "address"
        }
      ],
      "stateMutability": "view",
      "type": "function"
    }
  ],
  "bytecode": "0x60806040523480156200001157600080fd5b50604051620026073803806200260783398181016040528101906200003791906200016b565b336000806101000a81548173ffffffffffffffffffffffffffffffffffffffff021916908373ffffffffffffffffffffffffffffffffffffffff16021790555081600260006101000a81548173ffffffffffffffffffffffffffffffffffffffff021916908373ffffffffffffffffffffffffffffffffffffffff16021790555080600360006101000a81548173ffffffffffffffffffffffffffffffffffffffff021916908373ffffffffffffffffffffffffffffffffffffffff1602179055505050620001b2565b600080fd5b600073ffffffffffffffffffffffffffffffffffffffff82169050919050565b6000620001338262000106565b9050919050565b620001458162000126565b81146200015157600080fd5b50565b60008151905062000165816200013a565b92915050565b6000806040838503121562000185576200018462000101565b5b6000620001958582860162000154565b9250506020620001a88582860162000154565b9150509250929050565b61244580620001c26000396000f3fe608060405234801561001057600080fd5b506004361061010b5760003560e01c8063b73e4da0116100a2578063e1ec3c6811610071578063e1ec3c6814610294578063e3ed1902146102cc578063f171afcc146102fc578063f851a44014610318578063fc0c546a146103365761010b565b8063b73e4da01461020e578063bc5e08e01461022a578063c1a287e214610246578063ce961d9e146102645761010b565b806386a2a438116100de57806386a2a438146101885780638a700b53146101b85780639bc518e9146101d4578063a13596c5146101f05761010b565b806334d9289e1461011057806343eb6abf1461012e5780635d474a001461014c5780637c1bd4aa1461016a575b600080fd5b610118610354565b60405161012591906115e5565b60405180910390f35b61013661035a565b604051610143919061167f565b60405180910390f35b610154610380565b60405161016191906115e5565b60405180910390f35b610172610388565b60405161017f91906115e5565b60405180910390f35b6101a2600480360381019061019d91906116dd565b61038d565b6040516101af91906117c8565b60405180910390f35b6101d260048036038101906101cd9190611816565b610424565b005b6101ee60048036038101906101e99190611856565b610669565b005b6101f8610959565b60405161020591906115e5565b60405180910390f35b61022860048036038101906102239190611856565b610960565b005b610244600480360381019061023f9190611856565b610bfa565b005b61024e610d97565b60405161025b91906115e5565b60405180910390f35b61027e600480360381019061027991906118a8565b610d9e565b60405161028b91906115e5565b60405180910390f35b6102ae60048036038101906102a99190611856565b611271565b6040516102c3999897969594939291906119dd565b60405180910390f35b6102e660048036038101906102e19190611a6a565b6112f9565b6040516102f391906115e5565b60405180910390f35b61031660048036038101906103119190611856565b61132a565b005b610320611550565b60405161032d9190611aaa565b60405180910390f35b61033e611574565b60405161034b9190611ae6565b60405180910390f35b60015481565b600360009054906101000a900473ffffffffffffffffffffffffffffffffffffffff1681565b6301e1338081565b600a81565b6060600560008373ffffffffffffffffffffffffffffffffffffffff1673ffffffffffffffffffffffffffffffffffffffff16815260200190815260200160002080548060200260200160405190810160405280929190818152602001828054801561041857602002820191906000526020600020905b815481526020019060010190808311610404575b50505050509050919050565b60006004600084815260200190815260200160002090506002600481111561044f5761044e61190f565b5b8160050160009054906101000a900460ff1660048111156104735761047261190f565b5b146104b3576040517f08c379a00000000000000000000000000000000000000000000000000000000081526004016104aa90611b5e565b60405180910390fd5b600082116104f6576040517f08c379a00000000000000000000000000000000000000000000000000000000081526004016104ed90611bf0565b60405180910390fd5b600260009054906101000a900473ffffffffffffffffffffffffffffffffffffffff1673ffffffffffffffffffffffffffffffffffffffff166323b872dd3330856040518463ffffffff1660e01b815260040161055593929190611c10565b6020604051808303816000875af1158015610574573d6000803e3d6000fd5b505050506040513d601f19601f820116820180604052508101906105989190611c7f565b6105d7576040517f08c379a00000000000000000000000000000000000000000000000000000000081526004016105ce90611cf8565b60405180910390fd5b818160060160008282546105eb9190611d47565b92505081905550600081600601540361062c5760038160050160006101000a81548160ff021916908360048111156106265761062561190f565b5b02179055505b827f040cee90ee4799897c30ca04e5feb6fa43dbba9b6d084b4b257cdafd84ba013e8360405161065c91906115e5565b60405180910390a2505050565b60006004600083815260200190815260200160002090506004808111156106935761069261190f565b5b8160050160009054906101000a900460ff1660048111156106b7576106b661190f565b5b146106f7576040517f08c379a00000000000000000000000000000000000000000000000000000000081526004016106ee90611dc7565b60405180910390fd5b60008160040154426107099190611d47565b90506301e1338062c5c100629e34006107229190611de7565b61072c9190611de7565b81111561076e576040517f08c379a000000000000000000000000000000000000000000000000000000000815260040161076590611e67565b60405180910390fd5b60006064600a84600601546107839190611e87565b61078d9190611ef8565b836006015461079c9190611de7565b9050600260009054906101000a900473ffffffffffffffffffffffffffffffffffffffff1673ffffffffffffffffffffffffffffffffffffffff166323b872dd3330846040518463ffffffff1660e01b81526004016107fd93929190611c10565b6020604051808303816000875af115801561081c573d6000803e3d6000fd5b505050506040513d601f19601f820116820180604052508101906108409190611c7f565b61087f576040517f08c379a000000000000000000000000000000000000000000000000000000000815260040161087690611cf8565b60405180910390fd5b600360009054906101000a900473ffffffffffffffffffffffffffffffffffffffff1673ffffffffffffffffffffffffffffffffffffffff1663f242432a3033866007015460016040518563ffffffff1660e01b81526004016108e59493929190611f9b565b600060405180830381600087803b1580156108ff57600080fd5b505af1158015610913573d6000803e3d6000fd5b50505050837fbe16928e97ca897940f5aeafee616f18c1cbb36d679088e65afcdfe44164eac6846007015460405161094b91906115e5565b60405180910390a250505050565b62c5c10081565b60008054906101000a900473ffffffffffffffffffffffffffffffffffffffff1673ffffffffffffffffffffffffffffffffffffffff163373ffffffffffffffffffffffffffffffffffffffff16146109ee576040517f08c379a00000000000000000000000000000000000000000000000000000000081526004016109e590612065565b60405180910390fd5b600060046000838152602001908152602001600020905060006004811115610a1957610a1861190f565b5b8160050160009054906101000a900460ff166004811115610a3d57610a3c61190f565b5b14610a7d576040517f08c379a0000000000000000000000000000000000000000000000000000000008152600401610a74906120d1565b60405180910390fd5b60028160050160006101000a81548160ff02191690836004811115610aa557610aa461190f565b5b0217905550428160040181905550600260009054906101000a900473ffffffffffffffffffffffffffffffffffffffff1673ffffffffffffffffffffffffffffffffffffffff1663a9059cbb8260010160019054906101000a900473ffffffffffffffffffffffffffffffffffffffff1683600201546040518363ffffffff1660e01b8152600401610b389291906120f1565b6020604051808303816000875af1158015610b57573d6000803e3d6000fd5b505050506040513d601f19601f82011682018060405250810190610b7b9190611c7f565b610bba576040517f08c379a0000000000000000000000000000000000000000000000000000000008152600401610bb190611cf8565b60405180910390fd5b817fb2e7e42df3fc0061410ecdbb2644b7b36cd803c2c7d9f20515593b59d98b988c8260020154604051610bee91906115e5565b60405180910390a25050565b60008054906101000a900473ffffffffffffffffffffffffffffffffffffffff1673ffffffffffffffffffffffffffffffffffffffff163373ffffffffffffffffffffffffffffffffffffffff1614610c88576040517f08c379a0000000000000000000000000000000000000000000000000000000008152600401610c7f90612065565b60405180910390fd5b6000600360009054906101000a900473ffffffffffffffffffffffffffffffffffffffff1673ffffffffffffffffffffffffffffffffffffffff1662fdd58e30846040518363ffffffff1660e01b8152600401610ce69291906120f1565b602060405180830381865afa158015610d03573d6000803e3d6000fd5b505050506040513d601f19601f82011682018060405250810190610d27919061212f565b11610d67576040517f08c379a0000000000000000000000000000000000000000000000000000000008152600401610d5e906121a8565b60405180910390fd5b807f14c0210b1c7238cc7c13492960633d54fb95365edcedbe3ef0538a47a8e653dd60405160405180910390a250565b629e340081565b60008073ffffffffffffffffffffffffffffffffffffffff168573ffffffffffffffffffffffffffffffffffffffff1603610e0e576040517f08c379a0000000000000000000000000000000000000000000000000000000008152600401610e0590612214565b60405180910390fd5b60008411610e51576040517f08c379a0000000000000000000000000000000000000000000000000000000008152600401610e48906122a6565b60405180910390fd5b600360009054906101000a900473ffffffffffffffffffffffffffffffffffffffff1673ffffffffffffffffffffffffffffffffffffffff166382c9827e836040518263ffffffff1660e01b8152600401610eac91906115e5565b602060405180830381865afa158015610ec9573d6000803e3d6000fd5b505050506040513d601f19601f82011682018060405250810190610eed9190611c7f565b610f2c576040517f08c379a0000000000000000000000000000000000000000000000000000000008152600401610f2390612312565b60405180910390fd5b83600360009054906101000a900473ffffffffffffffffffffffffffffffffffffffff1673ffffffffffffffffffffffffffffffffffffffff1663bdc7c12b846040518263ffffffff1660e01b8152600401610f8891906115e5565b602060405180830381865afa158015610fa5573d6000803e3d6000fd5b505050506040513d601f19601f82011682018060405250810190610fc9919061212f565b11611009576040517f08c379a00000000000000000000000000000000000000000000000000000000081526004016110009061237e565b60405180910390fd5b6001600081548092919061101c9061239e565b9190505550600061102c8561159a565b905060405180610120016040528060015481526020018560018111156110555761105461190f565b5b81526020018773ffffffffffffffffffffffffffffffffffffffff168152602001868152602001828152602001600081526020016000600481111561109d5761109c61190f565b5b8152602001828152602001848152506004600060015481526020019081526020016000206000820151816000015560208201518160010160006101000a81548160ff021916908360018111156110f6576110f561190f565b5b021790555060408201518160010160016101000a81548173ffffffffffffffffffffffffffffffffffffffff021916908373ffffffffffffffffffffffffffffffffffffffff160217905550606082015181600201556080820151816003015560a0820151816004015560c08201518160050160006101000a81548160ff0219169083600481111561118b5761118a61190f565b5b021790555060e082015181600601556101008201518160070155905050600560008773ffffffffffffffffffffffffffffffffffffffff1673ffffffffffffffffffffffffffffffffffffffff16815260200190815260200160002060015490806001815401808255809150506001900390600052602060002001600090919091909150558573ffffffffffffffffffffffffffffffffffffffff166001547f3b46bdb0bbc00790176e3293ebaeeea3daf19fb9ade2a13f23a5b0831a03e03f878760405161125b9291906123e6565b60405180910390a3600154915050949350505050565b60046020528060005260406000206000915090508060000154908060010160009054906101000a900460ff16908060010160019054906101000a900473ffffffffffffffffffffffffffffffffffffffff16908060020154908060030154908060040154908060050160009054906101000a900460ff16908060060154908060070154905089565b6005602052816000526040600020818154811061131557600080fd5b90600052602060002001600091509150505481565b6000600460008381526020019081526020016000209050600260048111156113555761135461190f565b5b8160050160009054906101000a900460ff1660048111156113795761137861190f565b5b146113b9576040517f08c379a00000000000000000000000000000000000000000000000000000000081526004016113b090611b5e565b60405180910390fd5b60008160040154426113cb9190611d47565b905062c5c100629e34006113df9190611de7565b811180156113f1575060008260060154115b1561154b5760048260050160006101000a81548160ff0219169083600481111561141e5761141d61190f565b5b0217905550600082600701549050600360009054906101000a900473ffffffffffffffffffffffffffffffffffffffff1673ffffffffffffffffffffffffffffffffffffffff1663f242432a8460010160019054906101000a900473ffffffffffffffffffffffffffffffffffffffff16308460016040518563ffffffff1660e01b81526004016114b29493929190611f9b565b600060405180830381600087803b1580156114cc57600080fd5b505af11580156114e0573d6000803e3d6000fd5b50505050837f0789b7097e8066538cfaa1132488b132e14ba5f0c938c8b7aaf8cf40356aab0b60405160405180910390a2837f42a1bc68ef5034745de23466eb7cf1121f2e732715254f54f45d5f8a57c0b8e68260405161154191906115e5565b60405180910390a2505b505050565b60008054906101000a900473ffffffffffffffffffffffffffffffffffffffff1681565b600260009054906101000a900473ffffffffffffffffffffffffffffffffffffffff1681565b60008060049050606481846115af9190611e87565b6115b99190611ef8565b836115c49190611de7565b915050919050565b6000819050919050565b6115df816115cc565b82525050565b60006020820190506115fa60008301846115d6565b92915050565b600073ffffffffffffffffffffffffffffffffffffffff82169050919050565b6000819050919050565b600061164561164061163b84611600565b611620565b611600565b9050919050565b60006116578261162a565b9050919050565b60006116698261164c565b9050919050565b6116798161165e565b82525050565b60006020820190506116946000830184611670565b92915050565b600080fd5b60006116aa82611600565b9050919050565b6116ba8161169f565b81146116c557600080fd5b50565b6000813590506116d7816116b1565b92915050565b6000602082840312156116f3576116f261169a565b5b6000611701848285016116c8565b91505092915050565b600081519050919050565b600082825260208201905092915050565b6000819050602082019050919050565b61173f816115cc565b82525050565b60006117518383611736565b60208301905092915050565b6000602082019050919050565b60006117758261170a565b61177f8185611715565b935061178a83611726565b8060005b838110156117bb5781516117a28882611745565b97506117ad8361175d565b92505060018101905061178e565b5085935050505092915050565b600060208201905081810360008301526117e2818461176a565b905092915050565b6117f3816115cc565b81146117fe57600080fd5b50565b600081359050611810816117ea565b92915050565b6000806040838503121561182d5761182c61169a565b5b600061183b85828601611801565b925050602061184c85828601611801565b9150509250929050565b60006020828403121561186c5761186b61169a565b5b600061187a84828501611801565b91505092915050565b6002811061189057600080fd5b50565b6000813590506118a281611883565b92915050565b600080600080608085870312156118c2576118c161169a565b5b60006118d0878288016116c8565b94505060206118e187828801611801565b93505060406118f287828801611893565b925050606061190387828801611801565b91505092959194509250565b7f4e487b7100000000000000000000000000000000000000000000000000000000600052602160045260246000fd5b6002811061194f5761194e61190f565b5b50565b60008190506119608261193e565b919050565b600061197082611952565b9050919050565b61198081611965565b82525050565b61198f8161169f565b82525050565b600581106119a6576119a561190f565b5b50565b60008190506119b782611995565b919050565b60006119c7826119a9565b9050919050565b6119d7816119bc565b82525050565b6000610120820190506119f3600083018c6115d6565b611a00602083018b611977565b611a0d604083018a611986565b611a1a60608301896115d6565b611a2760808301886115d6565b611a3460a08301876115d6565b611a4160c08301866119ce565b611a4e60e08301856115d6565b611a5c6101008301846115d6565b9a9950505050505050505050565b60008060408385031215611a8157611a8061169a565b5b6000611a8f858286016116c8565b9250506020611aa085828601611801565b9150509250929050565b6000602082019050611abf6000830184611986565b92915050565b6000611ad08261164c565b9050919050565b611ae081611ac5565b82525050565b6000602082019050611afb6000830184611ad7565b92915050565b600082825260208201905092915050565b7f4c6f616e206d75737420626520696e2044697362757273656420737461747573600082015250565b6000611b48602083611b01565b9150611b5382611b12565b602082019050919050565b60006020820190508181036000830152611b7781611b3b565b9050919050565b7f52657061796d656e7420616d6f756e74206d757374206265206772656174657260008201527f207468616e207a65726f00000000000000000000000000000000000000000000602082015250565b6000611bda602a83611b01565b9150611be582611b7e565b604082019050919050565b60006020820190508181036000830152611c0981611bcd565b9050919050565b6000606082019050611c256000830186611986565b611c326020830185611986565b611c3f60408301846115d6565b949350505050565b60008115159050919050565b611c5c81611c47565b8114611c6757600080fd5b50565b600081519050611c7981611c53565b92915050565b600060208284031215611c9557611c9461169a565b5b6000611ca384828501611c6a565b91505092915050565b7f546f6b656e207472616e73666572206661696c65640000000000000000000000600082015250565b6000611ce2601583611b01565b9150611ced82611cac565b602082019050919050565b60006020820190508181036000830152611d1181611cd5565b9050919050565b7f4e487b7100000000000000000000000000000000000000000000000000000000600052601160045260246000fd5b6000611d52826115cc565b9150611d5d836115cc565b9250828203905081811115611d7557611d74611d18565b5b92915050565b7f4c6f616e206d75737420626520696e2044656661756c74656420737461747573600082015250565b6000611db1602083611b01565b9150611dbc82611d7b565b602082019050919050565b60006020820190508181036000830152611de081611da4565b9050919050565b6000611df2826115cc565b9150611dfd836115cc565b9250828201905080821115611e1557611e14611d18565b5b92915050565b7f526564656d7074696f6e20706572696f64206578706972656400000000000000600082015250565b6000611e51601983611b01565b9150611e5c82611e1b565b602082019050919050565b60006020820190508181036000830152611e8081611e44565b9050919050565b6000611e92826115cc565b9150611e9d836115cc565b9250828202611eab816115cc565b91508282048414831517611ec257611ec1611d18565b5b5092915050565b7f4e487b7100000000000000000000000000000000000000000000000000000000600052601260045260246000fd5b6000611f03826115cc565b9150611f0e836115cc565b925082611f1e57611f1d611ec9565b5b828204905092915050565b6000819050919050565b6000611f4e611f49611f4484611f29565b611620565b6115cc565b9050919050565b611f5e81611f33565b82525050565b600082825260208201905092915050565b50565b6000611f85600083611f64565b9150611f9082611f75565b600082019050919050565b600060a082019050611fb06000830187611986565b611fbd6020830186611986565b611fca60408301856115d6565b611fd76060830184611f55565b8181036080830152611fe881611f78565b905095945050505050565b7f4f6e6c792061646d696e2063616e20706572666f726d2074686973206163746960008201527f6f6e000000000000000000000000000000000000000000000000000000000000602082015250565b600061204f602283611b01565b915061205a82611ff3565b604082019050919050565b6000602082019050818103600083015261207e81612042565b9050919050565b7f4c6f616e206d75737420626520696e2050656e64696e67207374617475730000600082015250565b60006120bb601e83611b01565b91506120c682612085565b602082019050919050565b600060208201905081810360008301526120ea816120ae565b9050919050565b60006040820190506121066000830185611986565b61211360208301846115d6565b9392505050565b600081519050612129816117ea565b92915050565b6000602082840312156121455761214461169a565b5b60006121538482850161211a565b91505092915050565b7f436f6c6c61746572616c206e6f742068656c6420627920636f6e747261637400600082015250565b6000612192601f83611b01565b915061219d8261215c565b602082019050919050565b600060208201905081810360008301526121c181612185565b9050919050565b7f496e76616c696420626f72726f77657220616464726573730000000000000000600082015250565b60006121fe601883611b01565b9150612209826121c8565b602082019050919050565b6000602082019050818103600083015261222d816121f1565b9050919050565b7f4c6f616e20616d6f756e74206d7573742062652067726561746572207468616e60008201527f207a65726f000000000000000000000000000000000000000000000000000000602082015250565b6000612290602583611b01565b915061229b82612234565b604082019050919050565b600060208201905081810360008301526122bf81612283565b9050919050565b7f496e76616c696420636f6c6c61746572616c2064656564000000000000000000600082015250565b60006122fc601783611b01565b9150612307826122c6565b602082019050919050565b6000602082019050818103600083015261232b816122ef565b9050919050565b7f496e73756666696369656e7420636f6c6c61746572616c2076616c7565000000600082015250565b6000612368601d83611b01565b915061237382612332565b602082019050919050565b600060208201905081810360008301526123978161235b565b9050919050565b60006123a9826115cc565b91507fffffffffffffffffffffffffffffffffffffffffffffffffffffffffffffffff82036123db576123da611d18565b5b600182019050919050565b60006040820190506123fb60008301856115d6565b6124086020830184611977565b939250505056fea264697066735822122047549e63af86cd80f31e3945e87174263d355de3b8c84aa4ff5026b464c9d81e64736f6c63430008180033",
  "linkReferences": {},
  "deployedLinkReferences": {}
}