{
  "_format": "hh-sol-artifact-1",
  "contractName": "LandTitleDeed",
  "sourceName": "contracts/LandTitleDeed.sol",
  "abi": [
    {
      "inputs": [],
      "stateMutability": "nonpayable",
      "type": "constructor"
    },
    {
      "anonymous": false,
      "inputs": [
        {
          "indexed": true,
          "internalType": "address",
          "name": "account",
          "type": "address"
        },
        {
          "indexed": true,
          "internalType": "address",
          "name": "operator",
          "type": "address"
        },
        {
          "indexed": false,
          "internalType": "bool",
          "name": "approved",
          "type": "bool"
        }
      ],
      "name": "ApprovalForAll",
      "type": "event"
    },
    {
      "anonymous": false,
      "inputs": [
        {
          "indexed": true,
          "internalType": "uint256",
          "name": "titleDeedNumber",
          "type": "uint256"
        },
        {
          "indexed": false,
          "internalType": "uint256",
          "name": "collateralAmount",
          "type": "uint256"
        }
      ],
      "name": "CollateralAssigned",
      "type": "event"
    },
    {
      "anonymous": false,
      "inputs": [
        {
          "indexed": true,
          "internalType": "uint256",
          "name": "titleDeedNumber",
          "type": "uint256"
        },
        {
          "indexed": true,
          "internalType": "uint256",
          "name": "userId",
          "type": "uint256"
        },
        {
          "indexed": false,
          "internalType": "string",
          "name": "titleDeedName",
          "type": "string"
        },
        {
          "indexed": false,
          "internalType": "string",
          "name": "landCode",
          "type": "string"
        },
        {
          "indexed": false,
          "internalType": "string",
          "name": "ownerNationId",
          "type": "string"
        },
        {
          "indexed": false,
          "internalType": "string",
          "name": "landType",
          "type": "string"
        },
        {
          "indexed": false,
          "internalType": "string",
          "name": "landLayoutUrl",
          "type": "string"
        },
        {
          "indexed": false,
          "internalType": "uint256",
          "name": "landValue",
          "type": "uint256"
        }
      ],
      "name": "TitleDeedMinted",
      "type": "event"
    },
    {
      "anonymous": false,
      "inputs": [
        {
          "indexed": true,
          "internalType": "address",
          "name": "operator",
          "type": "address"
        },
        {
          "indexed": true,
          "internalType": "address",
          "name": "from",
          "type": "address"
        },
        {
          "indexed": true,
          "internalType": "address",
          "name": "to",
          "type": "address"
        },
        {
          "indexed": false,
          "internalType": "uint256[]",
          "name": "ids",
          "type": "uint256[]"
        },
        {
          "indexed": false,
          "internalType": "uint256[]",
          "name": "values",
          "type": "uint256[]"
        }
      ],
      "name": "TransferBatch",
      "type": "event"
    },
    {
      "anonymous": false,
      "inputs": [
        {
          "indexed": true,
          "internalType": "address",
          "name": "operator",
          "type": "address"
        },
        {
          "indexed": true,
          "internalType": "address",
          "name": "from",
          "type": "address"
        },
        {
          "indexed": true,
          "internalType": "address",
          "name": "to",
          "type": "address"
        },
        {
          "indexed": false,
          "internalType": "uint256",
          "name": "id",
          "type": "uint256"
        },
        {
          "indexed": false,
          "internalType": "uint256",
          "name": "value",
          "type": "uint256"
        }
      ],
      "name": "TransferSingle",
      "type": "event"
    },
    {
      "anonymous": false,
      "inputs": [
        {
          "indexed": false,
          "internalType": "string",
          "name": "value",
          "type": "string"
        },
        {
          "indexed": true,
          "internalType": "uint256",
          "name": "id",
          "type": "uint256"
        }
      ],
      "name": "URI",
      "type": "event"
    },
    {
      "inputs": [
        {
          "internalType": "uint256",
          "name": "deedId",
          "type": "uint256"
        },
        {
          "internalType": "uint256",
          "name": "collateralAmount",
          "type": "uint256"
        }
      ],
      "name": "assignCollateral",
      "outputs": [],
      "stateMutability": "nonpayable",
      "type": "function"
    },
    {
      "inputs": [
        {
          "internalType": "address",
          "name": "account",
          "type": "address"
        },
        {
          "internalType": "uint256",
          "name": "id",
          "type": "uint256"
        }
      ],
      "name": "balanceOf",
      "outputs": [
        {
          "internalType": "uint256",
          "name": "",
          "type": "uint256"
        }
      ],
      "stateMutability": "view",
      "type": "function"
    },
    {
      "inputs": [
        {
          "internalType": "address[]",
          "name": "accounts",
          "type": "address[]"
        },
        {
          "internalType": "uint256[]",
          "name": "ids",
          "type": "uint256[]"
        }
      ],
      "name": "balanceOfBatch",
      "outputs": [
        {
          "internalType": "uint256[]",
          "name": "",
          "type": "uint256[]"
        }
      ],
      "stateMutability": "view",
      "type": "function"
    },
    {
      "inputs": [
        {
          "internalType": "uint256",
          "name": "deedId",
          "type": "uint256"
        }
      ],
      "name": "getCollateralAmount",
      "outputs": [
        {
          "internalType": "uint256",
          "name": "",
          "type": "uint256"
        }
      ],
      "stateMutability": "view",
      "type": "function"
    },
    {
      "inputs": [
        {
          "internalType": "uint256",
          "name": "deedId",
          "type": "uint256"
        }
      ],
      "name": "getLandValue",
      "outputs": [
        {
          "internalType": "uint256",
          "name": "",
          "type": "uint256"
        }
      ],
      "stateMutability": "view",
      "type": "function"
    },
    {
      "inputs": [
        {
          "internalType": "uint256",
          "name": "deedId",
          "type": "uint256"
        }
      ],
      "name": "getTitleDeedById",
      "outputs": [
        {
          "components": [
            {
              "internalType": "uint256",
              "name": "titleDeedNumber",
              "type": "uint256"
            },
            {
              "internalType": "uint256",
              "name": "userId",
              "type": "uint256"
            },
            {
              "internalType": "string",
              "name": "titleDeedName",
              "type": "string"
            },
            {
              "internalType": "string",
              "name": "landCode",
              "type": "string"
            },
            {
              "internalType": "string",
              "name": "ownerNationId",
              "type": "string"
            },
            {
              "internalType": "string",
              "name": "landType",
              "type": "string"
            },
            {
              "internalType": "string",
              "name": "landLayoutUrl",
              "type": "string"
            },
            {
              "internalType": "uint256",
              "name": "landValue",
              "type": "uint256"
            },
            {
              "internalType": "uint256",
              "name": "collateralAmount",
              "type": "uint256"
            }
          ],
          "internalType": "struct LandTitleDeed.TitleDeed",
          "name": "",
          "type": "tuple"
        }
      ],
      "stateMutability": "view",
      "type": "function"
    },
    {
      "inputs": [
        {
          "internalType": "string",
          "name": "landCode",
          "type": "string"
        }
      ],
      "name": "getTitleDeedByLandCode",
      "outputs": [
        {
          "components": [
            {
              "internalType": "uint256",
              "name": "titleDeedNumber",
              "type": "uint256"
            },
            {
              "internalType": "uint256",
              "name": "userId",
              "type": "uint256"
            },
            {
              "internalType": "string",
              "name": "titleDeedName",
              "type": "string"
            },
            {
              "internalType": "string",
              "name": "landCode",
              "type": "string"
            },
            {
              "internalType": "string",
              "name": "ownerNationId",
              "type": "string"
            },
            {
              "internalType": "string",
              "name": "landType",
              "type": "string"
            },
            {
              "internalType": "string",
              "name": "landLayoutUrl",
              "type": "string"
            },
            {
              "internalType": "uint256",
              "name": "landValue",
              "type": "uint256"
            },
            {
              "internalType": "uint256",
              "name": "collateralAmount",
              "type": "uint256"
            }
          ],
          "internalType": "struct LandTitleDeed.TitleDeed",
          "name": "",
          "type": "tuple"
        }
      ],
      "stateMutability": "view",
      "type": "function"
    },
    {
      "inputs": [
        {
          "internalType": "uint256",
          "name": "userId",
          "type": "uint256"
        }
      ],
      "name": "getTitleDeedsByUser",
      "outputs": [
        {
          "components": [
            {
              "internalType": "uint256",
              "name": "titleDeedNumber",
              "type": "uint256"
            },
            {
              "internalType": "uint256",
              "name": "userId",
              "type": "uint256"
            },
            {
              "internalType": "string",
              "name": "titleDeedName",
              "type": "string"
            },
            {
              "internalType": "string",
              "name": "landCode",
              "type": "string"
            },
            {
              "internalType": "string",
              "name": "ownerNationId",
              "type": "string"
            },
            {
              "internalType": "string",
              "name": "landType",
              "type": "string"
            },
            {
              "internalType": "string",
              "name": "landLayoutUrl",
              "type": "string"
            },
            {
              "internalType": "uint256",
              "name": "landValue",
              "type": "uint256"
            },
            {
              "internalType": "uint256",
              "name": "collateralAmount",
              "type": "uint256"
            }
          ],
          "internalType": "struct LandTitleDeed.TitleDeed[]",
          "name": "",
          "type": "tuple[]"
        }
      ],
      "stateMutability": "view",
      "type": "function"
    },
    {
      "inputs": [
        {
          "internalType": "address",
          "name": "account",
          "type": "address"
        },
        {
          "internalType": "address",
          "name": "operator",
          "type": "address"
        }
      ],
      "name": "isApprovedForAll",
      "outputs": [
        {
          "internalType": "bool",
          "name": "",
          "type": "bool"
        }
      ],
      "stateMutability": "view",
      "type": "function"
    },
    {
      "inputs": [
        {
          "internalType": "uint256",
          "name": "deedId",
          "type": "uint256"
        }
      ],
      "name": "isDeedValid",
      "outputs": [
        {
          "internalType": "bool",
          "name": "",
          "type": "bool"
        }
      ],
      "stateMutability": "view",
      "type": "function"
    },
    {
      "inputs": [
        {
          "internalType": "uint256",
          "name": "userId",
          "type": "uint256"
        },
        {
          "internalType": "string",
          "name": "titleDeedName",
          "type": "string"
        },
        {
          "internalType": "string",
          "name": "landCode",
          "type": "string"
        },
        {
          "internalType": "string",
          "name": "ownerNationId",
          "type": "string"
        },
        {
          "internalType": "string",
          "name": "landType",
          "type": "string"
        },
        {
          "internalType": "string",
          "name": "landLayoutUrl",
          "type": "string"
        },
        {
          "internalType": "uint256",
          "name": "landValue",
          "type": "uint256"
        }
      ],
      "name": "mintTitleDeed",
      "outputs": [],
      "stateMutability": "nonpayable",
      "type": "function"
    },
    {
      "inputs": [
        {
          "internalType": "address",
          "name": "from",
          "type": "address"
        },
        {
          "internalType": "address",
          "name": "to",
          "type": "address"
        },
        {
          "internalType": "uint256[]",
          "name": "ids",
          "type": "uint256[]"
        },
        {
          "internalType": "uint256[]",
          "name": "amounts",
          "type": "uint256[]"
        },
        {
          "internalType": "bytes",
          "name": "data",
          "type": "bytes"
        }
      ],
      "name": "safeBatchTransferFrom",
      "outputs": [],
      "stateMutability": "nonpayable",
      "type": "function"
    },
    {
      "inputs": [
        {
          "internalType": "address",
          "name": "from",
          "type": "address"
        },
        {
          "internalType": "address",
          "name": "to",
          "type": "address"
        },
        {
          "internalType": "uint256",
          "name": "id",
          "type": "uint256"
        },
        {
          "internalType": "uint256",
          "name": "amount",
          "type": "uint256"
        },
        {
          "internalType": "bytes",
          "name": "data",
          "type": "bytes"
        }
      ],
      "name": "safeTransferFrom",
      "outputs": [],
      "stateMutability": "nonpayable",
      "type": "function"
    },
    {
      "inputs": [
        {
          "internalType": "address",
          "name": "operator",
          "type": "address"
        },
        {
          "internalType": "bool",
          "name": "approved",
          "type": "bool"
        }
      ],
      "name": "setApprovalForAll",
      "outputs": [],
      "stateMutability": "nonpayable",
      "type": "function"
    },
    {
      "inputs": [
        {
          "internalType": "bytes4",
          "name": "interfaceId",
          "type": "bytes4"
        }
      ],
      "name": "supportsInterface",
      "outputs": [
        {
          "internalType": "bool",
          "name": "",
          "type": "bool"
        }
      ],
      "stateMutability": "view",
      "type": "function"
    },
    {
      "inputs": [
        {
          "internalType": "uint256",
          "name": "",
          "type": "uint256"
        }
      ],
      "name": "uri",
      "outputs": [
        {
          "internalType": "string",
          "name": "",
          "type": "string"
        }
      ],
      "stateMutability": "view",
      "type": "function"
    }
  ],
  "bytecode": "0x60806040523480156200001157600080fd5b50604051806060016040528060268152602001620047c6602691396200003d816200004460201b60201c565b50620003ba565b8060029081620000559190620002d3565b5050565b600081519050919050565b7f4e487b7100000000000000000000000000000000000000000000000000000000600052604160045260246000fd5b7f4e487b7100000000000000000000000000000000000000000000000000000000600052602260045260246000fd5b60006002820490506001821680620000db57607f821691505b602082108103620000f157620000f062000093565b5b50919050565b60008190508160005260206000209050919050565b60006020601f8301049050919050565b600082821b905092915050565b6000600883026200015b7fffffffffffffffffffffffffffffffffffffffffffffffffffffffffffffffff826200011c565b6200016786836200011c565b95508019841693508086168417925050509392505050565b6000819050919050565b6000819050919050565b6000620001b4620001ae620001a8846200017f565b62000189565b6200017f565b9050919050565b6000819050919050565b620001d08362000193565b620001e8620001df82620001bb565b84845462000129565b825550505050565b600090565b620001ff620001f0565b6200020c818484620001c5565b505050565b5b81811015620002345762000228600082620001f5565b60018101905062000212565b5050565b601f82111562000283576200024d81620000f7565b62000258846200010c565b8101602085101562000268578190505b6200028062000277856200010c565b83018262000211565b50505b505050565b600082821c905092915050565b6000620002a86000198460080262000288565b1980831691505092915050565b6000620002c3838362000295565b9150826002028217905092915050565b620002de8262000059565b67ffffffffffffffff811115620002fa57620002f962000064565b5b620003068254620000c2565b6200031382828562000238565b600060209050601f8311600181146200034b576000841562000336578287015190505b620003428582620002b5565b865550620003b2565b601f1984166200035b86620000f7565b60005b8281101562000385578489015182556001820191506020850194506020810190506200035e565b86831015620003a55784890151620003a1601f89168262000295565b8355505b6001600288020188555050505b505050505050565b6143fc80620003ca6000396000f3fe608060405234801561001057600080fd5b50600436106100ff5760003560e01c80637ae7bd0911610097578063b1c0b3fc11610066578063b1c0b3fc146102f4578063bdc7c12b14610324578063e985e9c514610354578063f242432a14610384576100ff565b80637ae7bd091461025c57806382c9827e1461028c578063a22cb465146102bc578063ada98a24146102d8576100ff565b80630e89341c116100d35780630e89341c146101b05780632eb2c2d6146101e05780634a07171a146101fc5780634e1273f41461022c576100ff565b8062fdd58e1461010457806301ffc9a71461013457806309185e5c146101645780630c5f559e14610194575b600080fd5b61011e600480360381019061011991906126d8565b6103a0565b60405161012b9190612727565b60405180910390f35b61014e6004803603810190610149919061279a565b610468565b60405161015b91906127e2565b60405180910390f35b61017e600480360381019061017991906127fd565b61054a565b60405161018b9190612a6c565b60405180910390f35b6101ae60048036038101906101a99190612bc3565b610988565b005b6101ca60048036038101906101c591906127fd565b610b9d565b6040516101d79190612d3b565b60405180910390f35b6101fa60048036038101906101f59190612ec6565b610c31565b005b610216600480360381019061021191906127fd565b610cd2565b6040516102239190613076565b60405180910390f35b6102466004803603810190610241919061315b565b61104a565b6040516102539190613282565b60405180910390f35b610276600480360381019061027191906132a4565b61115d565b6040516102839190613076565b60405180910390f35b6102a660048036038101906102a191906127fd565b6114f9565b6040516102b391906127e2565b60405180910390f35b6102d660048036038101906102d19190613319565b61150e565b005b6102f260048036038101906102ed9190613359565b611524565b005b61030e600480360381019061030991906127fd565b61161c565b60405161031b9190612727565b60405180910390f35b61033e600480360381019061033991906127fd565b611684565b60405161034b9190612727565b60405180910390f35b61036e60048036038101906103699190613399565b6116ec565b60405161037b91906127e2565b60405180910390f35b61039e600480360381019061039991906133d9565b611780565b005b60008073ffffffffffffffffffffffffffffffffffffffff168373ffffffffffffffffffffffffffffffffffffffff1603610410576040517f08c379a0000000000000000000000000000000000000000000000000000000008152600401610407906134e2565b60405180910390fd5b60008083815260200190815260200160002060008473ffffffffffffffffffffffffffffffffffffffff1673ffffffffffffffffffffffffffffffffffffffff16815260200190815260200160002054905092915050565b60007fd9b67a26000000000000000000000000000000000000000000000000000000007bffffffffffffffffffffffffffffffffffffffffffffffffffffffff1916827bffffffffffffffffffffffffffffffffffffffffffffffffffffffff1916148061053357507f0e89341c000000000000000000000000000000000000000000000000000000007bffffffffffffffffffffffffffffffffffffffffffffffffffffffff1916827bffffffffffffffffffffffffffffffffffffffffffffffffffffffff1916145b80610543575061054282611821565b5b9050919050565b60606000600560008481526020019081526020016000208054806020026020016040519081016040528092919081815260200182805480156105ab57602002820191906000526020600020905b815481526020019060010190808311610597575b505050505090506000815167ffffffffffffffff8111156105cf576105ce612a98565b5b60405190808252806020026020018201604052801561060857816020015b6105f56125e4565b8152602001906001900390816105ed5790505b50905060005b825181101561097d576004600084838151811061062e5761062d613502565b5b6020026020010151815260200190815260200160002060405180610120016040529081600082015481526020016001820154815260200160028201805461067490613560565b80601f01602080910402602001604051908101604052809291908181526020018280546106a090613560565b80156106ed5780601f106106c2576101008083540402835291602001916106ed565b820191906000526020600020905b8154815290600101906020018083116106d057829003601f168201915b5050505050815260200160038201805461070690613560565b80601f016020809104026020016040519081016040528092919081815260200182805461073290613560565b801561077f5780601f106107545761010080835404028352916020019161077f565b820191906000526020600020905b81548152906001019060200180831161076257829003601f168201915b5050505050815260200160048201805461079890613560565b80601f01602080910402602001604051908101604052809291908181526020018280546107c490613560565b80156108115780601f106107e657610100808354040283529160200191610811565b820191906000526020600020905b8154815290600101906020018083116107f457829003601f168201915b5050505050815260200160058201805461082a90613560565b80601f016020809104026020016040519081016040528092919081815260200182805461085690613560565b80156108a35780601f10610878576101008083540402835291602001916108a3565b820191906000526020600020905b81548152906001019060200180831161088657829003601f168201915b505050505081526020016006820180546108bc90613560565b80601f01602080910402602001604051908101604052809291908181526020018280546108e890613560565b80156109355780601f1061090a57610100808354040283529160200191610935565b820191906000526020600020905b81548152906001019060200180831161091857829003601f168201915b505050505081526020016007820154815260200160088201548152505082828151811061096557610964613502565b5b6020026020010181905250808060010191505061060e565b508092505050919050565b600081116109cb576040517f08c379a00000000000000000000000000000000000000000000000000000000081526004016109c290613603565b60405180910390fd5b6109d5600361188b565b60006109e160036118a1565b90506109ff33826001604051806020016040528060008152506118af565b60006040518061012001604052808381526020018a815260200189815260200188815260200187815260200186815260200185815260200184815260200160008152509050806004600084815260200190815260200160002060008201518160000155602082015181600101556040820151816002019081610a8191906137cf565b506060820151816003019081610a9791906137cf565b506080820151816004019081610aad91906137cf565b5060a0820151816005019081610ac391906137cf565b5060c0820151816006019081610ad991906137cf565b5060e082015181600701556101008201518160080155905050600560008a815260200190815260200160002082908060018154018082558091505060019003906000526020600020016000909190919091505581600688604051610b3d91906138dd565b90815260200160405180910390208190555088827f0c782e4670e4218bb81ede712b88960b6306809bb46e6c0d4a24938f0e72ba3e8a8a8a8a8a8a604051610b8a969594939291906138f4565b60405180910390a3505050505050505050565b606060028054610bac90613560565b80601f0160208091040260200160405190810160405280929190818152602001828054610bd890613560565b8015610c255780601f10610bfa57610100808354040283529160200191610c25565b820191906000526020600020905b815481529060010190602001808311610c0857829003601f168201915b50505050509050919050565b610c39611a5f565b73ffffffffffffffffffffffffffffffffffffffff168573ffffffffffffffffffffffffffffffffffffffff161480610c7f5750610c7e85610c79611a5f565b6116ec565b5b610cbe576040517f08c379a0000000000000000000000000000000000000000000000000000000008152600401610cb5906139ea565b60405180910390fd5b610ccb8585858585611a67565b5050505050565b610cda6125e4565b610ce3826114f9565b610d22576040517f08c379a0000000000000000000000000000000000000000000000000000000008152600401610d1990613a56565b60405180910390fd5b60046000838152602001908152602001600020604051806101200160405290816000820154815260200160018201548152602001600282018054610d6590613560565b80601f0160208091040260200160405190810160405280929190818152602001828054610d9190613560565b8015610dde5780601f10610db357610100808354040283529160200191610dde565b820191906000526020600020905b815481529060010190602001808311610dc157829003601f168201915b50505050508152602001600382018054610df790613560565b80601f0160208091040260200160405190810160405280929190818152602001828054610e2390613560565b8015610e705780601f10610e4557610100808354040283529160200191610e70565b820191906000526020600020905b815481529060010190602001808311610e5357829003601f168201915b50505050508152602001600482018054610e8990613560565b80601f0160208091040260200160405190810160405280929190818152602001828054610eb590613560565b8015610f025780601f10610ed757610100808354040283529160200191610f02565b820191906000526020600020905b815481529060010190602001808311610ee557829003601f168201915b50505050508152602001600582018054610f1b90613560565b80601f0160208091040260200160405190810160405280929190818152602001828054610f4790613560565b8015610f945780601f10610f6957610100808354040283529160200191610f94565b820191906000526020600020905b815481529060010190602001808311610f7757829003601f168201915b50505050508152602001600682018054610fad90613560565b80601f0160208091040260200160405190810160405280929190818152602001828054610fd990613560565b80156110265780601f10610ffb57610100808354040283529160200191611026565b820191906000526020600020905b81548152906001019060200180831161100957829003601f168201915b50505050508152602001600782015481526020016008820154815250509050919050565b60608151835114611090576040517f08c379a000000000000000000000000000000000000000000000000000000000815260040161108790613ae8565b60405180910390fd5b6000835167ffffffffffffffff8111156110ad576110ac612a98565b5b6040519080825280602002602001820160405280156110db5781602001602082028036833780820191505090505b50905060005b845181101561115257611128858281518110611100576110ff613502565b5b602002602001015185838151811061111b5761111a613502565b5b60200260200101516103a0565b82828151811061113b5761113a613502565b5b6020026020010181815250508060010190506110e1565b508091505092915050565b6111656125e4565b600060068360405161117791906138dd565b9081526020016040518091039020549050611191816114f9565b6111d0576040517f08c379a00000000000000000000000000000000000000000000000000000000081526004016111c790613b7a565b60405180910390fd5b6004600082815260200190815260200160002060405180610120016040529081600082015481526020016001820154815260200160028201805461121390613560565b80601f016020809104026020016040519081016040528092919081815260200182805461123f90613560565b801561128c5780601f106112615761010080835404028352916020019161128c565b820191906000526020600020905b81548152906001019060200180831161126f57829003601f168201915b505050505081526020016003820180546112a590613560565b80601f01602080910402602001604051908101604052809291908181526020018280546112d190613560565b801561131e5780601f106112f35761010080835404028352916020019161131e565b820191906000526020600020905b81548152906001019060200180831161130157829003601f168201915b5050505050815260200160048201805461133790613560565b80601f016020809104026020016040519081016040528092919081815260200182805461136390613560565b80156113b05780601f10611385576101008083540402835291602001916113b0565b820191906000526020600020905b81548152906001019060200180831161139357829003601f168201915b505050505081526020016005820180546113c990613560565b80601f01602080910402602001604051908101604052809291908181526020018280546113f590613560565b80156114425780601f1061141757610100808354040283529160200191611442565b820191906000526020600020905b81548152906001019060200180831161142557829003601f168201915b5050505050815260200160068201805461145b90613560565b80601f016020809104026020016040519081016040528092919081815260200182805461148790613560565b80156114d45780601f106114a9576101008083540402835291602001916114d4565b820191906000526020600020905b8154815290600101906020018083116114b757829003601f168201915b5050505050815260200160078201548152602001600882015481525050915050919050565b60008061150633846103a0565b119050919050565b611520611519611a5f565b8383611d82565b5050565b61152d826114f9565b61156c576040517f08c379a000000000000000000000000000000000000000000000000000000000815260040161156390613be6565b60405180910390fd5b6000600460008481526020019081526020016000209050600082118015611597575080600701548211155b6115d6576040517f08c379a00000000000000000000000000000000000000000000000000000000081526004016115cd90613c52565b60405180910390fd5b818160080181905550827f5310a2e5496b1103f5c7f354cfe0b41dd7ff20dbd3c6dd4bf37a603b0a798a808360405161160f9190612727565b60405180910390a2505050565b6000611627826114f9565b611666576040517f08c379a000000000000000000000000000000000000000000000000000000000815260040161165d90613cbe565b60405180910390fd5b60046000838152602001908152602001600020600701549050919050565b600061168f826114f9565b6116ce576040517f08c379a00000000000000000000000000000000000000000000000000000000081526004016116c590613cbe565b60405180910390fd5b60046000838152602001908152602001600020600801549050919050565b6000600160008473ffffffffffffffffffffffffffffffffffffffff1673ffffffffffffffffffffffffffffffffffffffff16815260200190815260200160002060008373ffffffffffffffffffffffffffffffffffffffff1673ffffffffffffffffffffffffffffffffffffffff16815260200190815260200160002060009054906101000a900460ff16905092915050565b611788611a5f565b73ffffffffffffffffffffffffffffffffffffffff168573ffffffffffffffffffffffffffffffffffffffff1614806117ce57506117cd856117c8611a5f565b6116ec565b5b61180d576040517f08c379a0000000000000000000000000000000000000000000000000000000008152600401611804906139ea565b60405180910390fd5b61181a8585858585611eee565b5050505050565b60007f01ffc9a7000000000000000000000000000000000000000000000000000000007bffffffffffffffffffffffffffffffffffffffffffffffffffffffff1916827bffffffffffffffffffffffffffffffffffffffffffffffffffffffff1916149050919050565b6001816000016000828254019250508190555050565b600081600001549050919050565b600073ffffffffffffffffffffffffffffffffffffffff168473ffffffffffffffffffffffffffffffffffffffff160361191e576040517f08c379a000000000000000000000000000000000000000000000000000000000815260040161191590613d50565b60405180910390fd5b6000611928611a5f565b9050600061193585612189565b9050600061194285612189565b905061195383600089858589612203565b8460008088815260200190815260200160002060008973ffffffffffffffffffffffffffffffffffffffff1673ffffffffffffffffffffffffffffffffffffffff16815260200190815260200160002060008282546119b29190613d9f565b925050819055508673ffffffffffffffffffffffffffffffffffffffff16600073ffffffffffffffffffffffffffffffffffffffff168473ffffffffffffffffffffffffffffffffffffffff167fc3d58168c5ae7397731d063d5bbf3d657854427343f4c083240f7aacaa2d0f628989604051611a30929190613dd3565b60405180910390a4611a478360008985858961220b565b611a5683600089898989612213565b50505050505050565b600033905090565b8151835114611aab576040517f08c379a0000000000000000000000000000000000000000000000000000000008152600401611aa290613e6e565b60405180910390fd5b600073ffffffffffffffffffffffffffffffffffffffff168473ffffffffffffffffffffffffffffffffffffffff1603611b1a576040517f08c379a0000000000000000000000000000000000000000000000000000000008152600401611b1190613f00565b60405180910390fd5b6000611b24611a5f565b9050611b34818787878787612203565b60005b8451811015611cdf576000858281518110611b5557611b54613502565b5b602002602001015190506000858381518110611b7457611b73613502565b5b60200260200101519050600080600084815260200190815260200160002060008b73ffffffffffffffffffffffffffffffffffffffff1673ffffffffffffffffffffffffffffffffffffffff16815260200190815260200160002054905081811015611c15576040517f08c379a0000000000000000000000000000000000000000000000000000000008152600401611c0c90613f92565b60405180910390fd5b81810360008085815260200190815260200160002060008c73ffffffffffffffffffffffffffffffffffffffff1673ffffffffffffffffffffffffffffffffffffffff168152602001908152602001600020819055508160008085815260200190815260200160002060008b73ffffffffffffffffffffffffffffffffffffffff1673ffffffffffffffffffffffffffffffffffffffff1681526020019081526020016000206000828254611cca9190613d9f565b92505081905550505050806001019050611b37565b508473ffffffffffffffffffffffffffffffffffffffff168673ffffffffffffffffffffffffffffffffffffffff168273ffffffffffffffffffffffffffffffffffffffff167f4a39dc06d4c0dbc64b70af90fd698a233a518aa5d07e595d983b8c0526c8f7fb8787604051611d56929190613fb2565b60405180910390a4611d6c81878787878761220b565b611d7a8187878787876123ea565b505050505050565b8173ffffffffffffffffffffffffffffffffffffffff168373ffffffffffffffffffffffffffffffffffffffff1603611df0576040517f08c379a0000000000000000000000000000000000000000000000000000000008152600401611de79061405b565b60405180910390fd5b80600160008573ffffffffffffffffffffffffffffffffffffffff1673ffffffffffffffffffffffffffffffffffffffff16815260200190815260200160002060008473ffffffffffffffffffffffffffffffffffffffff1673ffffffffffffffffffffffffffffffffffffffff16815260200190815260200160002060006101000a81548160ff0219169083151502179055508173ffffffffffffffffffffffffffffffffffffffff168373ffffffffffffffffffffffffffffffffffffffff167f17307eab39ab6107e8899845ad3d59bd9653f200f220920489ca2b5937696c3183604051611ee191906127e2565b60405180910390a3505050565b600073ffffffffffffffffffffffffffffffffffffffff168473ffffffffffffffffffffffffffffffffffffffff1603611f5d576040517f08c379a0000000000000000000000000000000000000000000000000000000008152600401611f5490613f00565b60405180910390fd5b6000611f67611a5f565b90506000611f7485612189565b90506000611f8185612189565b9050611f91838989858589612203565b600080600088815260200190815260200160002060008a73ffffffffffffffffffffffffffffffffffffffff1673ffffffffffffffffffffffffffffffffffffffff16815260200190815260200160002054905085811015612028576040517f08c379a000000000000000000000000000000000000000000000000000000000815260040161201f90613f92565b60405180910390fd5b85810360008089815260200190815260200160002060008b73ffffffffffffffffffffffffffffffffffffffff1673ffffffffffffffffffffffffffffffffffffffff168152602001908152602001600020819055508560008089815260200190815260200160002060008a73ffffffffffffffffffffffffffffffffffffffff1673ffffffffffffffffffffffffffffffffffffffff16815260200190815260200160002060008282546120dd9190613d9f565b925050819055508773ffffffffffffffffffffffffffffffffffffffff168973ffffffffffffffffffffffffffffffffffffffff168573ffffffffffffffffffffffffffffffffffffffff167fc3d58168c5ae7397731d063d5bbf3d657854427343f4c083240f7aacaa2d0f628a8a60405161215a929190613dd3565b60405180910390a4612170848a8a86868a61220b565b61217e848a8a8a8a8a612213565b505050505050505050565b60606000600167ffffffffffffffff8111156121a8576121a7612a98565b5b6040519080825280602002602001820160405280156121d65781602001602082028036833780820191505090505b50905082816000815181106121ee576121ed613502565b5b60200260200101818152505080915050919050565b505050505050565b505050505050565b6122328473ffffffffffffffffffffffffffffffffffffffff166125c1565b156123e2578373ffffffffffffffffffffffffffffffffffffffff1663f23a6e6187878686866040518663ffffffff1660e01b81526004016122789594939291906140df565b6020604051808303816000875af19250505080156122b457506040513d601f19601f820116820180604052508101906122b1919061414e565b60015b612359576122c0614188565b806308c379a00361231c57506122d46141aa565b806122df575061231e565b806040517f08c379a00000000000000000000000000000000000000000000000000000000081526004016123139190612d3b565b60405180910390fd5b505b6040517f08c379a0000000000000000000000000000000000000000000000000000000008152600401612350906142ac565b60405180910390fd5b63f23a6e6160e01b7bffffffffffffffffffffffffffffffffffffffffffffffffffffffff1916817bffffffffffffffffffffffffffffffffffffffffffffffffffffffff1916146123e0576040517f08c379a00000000000000000000000000000000000000000000000000000000081526004016123d79061433e565b60405180910390fd5b505b505050505050565b6124098473ffffffffffffffffffffffffffffffffffffffff166125c1565b156125b9578373ffffffffffffffffffffffffffffffffffffffff1663bc197c8187878686866040518663ffffffff1660e01b815260040161244f95949392919061435e565b6020604051808303816000875af192505050801561248b57506040513d601f19601f82011682018060405250810190612488919061414e565b60015b61253057612497614188565b806308c379a0036124f357506124ab6141aa565b806124b657506124f5565b806040517f08c379a00000000000000000000000000000000000000000000000000000000081526004016124ea9190612d3b565b60405180910390fd5b505b6040517f08c379a0000000000000000000000000000000000000000000000000000000008152600401612527906142ac565b60405180910390fd5b63bc197c8160e01b7bffffffffffffffffffffffffffffffffffffffffffffffffffffffff1916817bffffffffffffffffffffffffffffffffffffffffffffffffffffffff1916146125b7576040517f08c379a00000000000000000000000000000000000000000000000000000000081526004016125ae9061433e565b60405180910390fd5b505b505050505050565b6000808273ffffffffffffffffffffffffffffffffffffffff163b119050919050565b6040518061012001604052806000815260200160008152602001606081526020016060815260200160608152602001606081526020016060815260200160008152602001600081525090565b6000604051905090565b600080fd5b600080fd5b600073ffffffffffffffffffffffffffffffffffffffff82169050919050565b600061266f82612644565b9050919050565b61267f81612664565b811461268a57600080fd5b50565b60008135905061269c81612676565b92915050565b6000819050919050565b6126b5816126a2565b81146126c057600080fd5b50565b6000813590506126d2816126ac565b92915050565b600080604083850312156126ef576126ee61263a565b5b60006126fd8582860161268d565b925050602061270e858286016126c3565b9150509250929050565b612721816126a2565b82525050565b600060208201905061273c6000830184612718565b92915050565b60007fffffffff0000000000000000000000000000000000000000000000000000000082169050919050565b61277781612742565b811461278257600080fd5b50565b6000813590506127948161276e565b92915050565b6000602082840312156127b0576127af61263a565b5b60006127be84828501612785565b91505092915050565b60008115159050919050565b6127dc816127c7565b82525050565b60006020820190506127f760008301846127d3565b92915050565b6000602082840312156128135761281261263a565b5b6000612821848285016126c3565b91505092915050565b600081519050919050565b600082825260208201905092915050565b6000819050602082019050919050565b61285f816126a2565b82525050565b600081519050919050565b600082825260208201905092915050565b60005b8381101561289f578082015181840152602081019050612884565b60008484015250505050565b6000601f19601f8301169050919050565b60006128c782612865565b6128d18185612870565b93506128e1818560208601612881565b6128ea816128ab565b840191505092915050565b60006101208301600083015161290e6000860182612856565b5060208301516129216020860182612856565b506040830151848203604086015261293982826128bc565b9150506060830151848203606086015261295382826128bc565b9150506080830151848203608086015261296d82826128bc565b91505060a083015184820360a086015261298782826128bc565b91505060c083015184820360c08601526129a182826128bc565b91505060e08301516129b660e0860182612856565b506101008301516129cb610100860182612856565b508091505092915050565b60006129e283836128f5565b905092915050565b6000602082019050919050565b6000612a028261282a565b612a0c8185612835565b935083602082028501612a1e85612846565b8060005b85811015612a5a5784840389528151612a3b85826129d6565b9450612a46836129ea565b925060208a01995050600181019050612a22565b50829750879550505050505092915050565b60006020820190508181036000830152612a8681846129f7565b905092915050565b600080fd5b600080fd5b7f4e487b7100000000000000000000000000000000000000000000000000000000600052604160045260246000fd5b612ad0826128ab565b810181811067ffffffffffffffff82111715612aef57612aee612a98565b5b80604052505050565b6000612b02612630565b9050612b0e8282612ac7565b919050565b600067ffffffffffffffff821115612b2e57612b2d612a98565b5b612b37826128ab565b9050602081019050919050565b82818337600083830152505050565b6000612b66612b6184612b13565b612af8565b905082815260208101848484011115612b8257612b81612a93565b5b612b8d848285612b44565b509392505050565b600082601f830112612baa57612ba9612a8e565b5b8135612bba848260208601612b53565b91505092915050565b600080600080600080600060e0888a031215612be257612be161263a565b5b6000612bf08a828b016126c3565b975050602088013567ffffffffffffffff811115612c1157612c1061263f565b5b612c1d8a828b01612b95565b965050604088013567ffffffffffffffff811115612c3e57612c3d61263f565b5b612c4a8a828b01612b95565b955050606088013567ffffffffffffffff811115612c6b57612c6a61263f565b5b612c778a828b01612b95565b945050608088013567ffffffffffffffff811115612c9857612c9761263f565b5b612ca48a828b01612b95565b93505060a088013567ffffffffffffffff811115612cc557612cc461263f565b5b612cd18a828b01612b95565b92505060c0612ce28a828b016126c3565b91505092959891949750929550565b600082825260208201905092915050565b6000612d0d82612865565b612d178185612cf1565b9350612d27818560208601612881565b612d30816128ab565b840191505092915050565b60006020820190508181036000830152612d558184612d02565b905092915050565b600067ffffffffffffffff821115612d7857612d77612a98565b5b602082029050602081019050919050565b600080fd5b6000612da1612d9c84612d5d565b612af8565b90508083825260208201905060208402830185811115612dc457612dc3612d89565b5b835b81811015612ded5780612dd988826126c3565b845260208401935050602081019050612dc6565b5050509392505050565b600082601f830112612e0c57612e0b612a8e565b5b8135612e1c848260208601612d8e565b91505092915050565b600067ffffffffffffffff821115612e4057612e3f612a98565b5b612e49826128ab565b9050602081019050919050565b6000612e69612e6484612e25565b612af8565b905082815260208101848484011115612e8557612e84612a93565b5b612e90848285612b44565b509392505050565b600082601f830112612ead57612eac612a8e565b5b8135612ebd848260208601612e56565b91505092915050565b600080600080600060a08688031215612ee257612ee161263a565b5b6000612ef08882890161268d565b9550506020612f018882890161268d565b945050604086013567ffffffffffffffff811115612f2257612f2161263f565b5b612f2e88828901612df7565b935050606086013567ffffffffffffffff811115612f4f57612f4e61263f565b5b612f5b88828901612df7565b925050608086013567ffffffffffffffff811115612f7c57612f7b61263f565b5b612f8888828901612e98565b9150509295509295909350565b600061012083016000830151612fae6000860182612856565b506020830151612fc16020860182612856565b5060408301518482036040860152612fd982826128bc565b91505060608301518482036060860152612ff382826128bc565b9150506080830151848203608086015261300d82826128bc565b91505060a083015184820360a086015261302782826128bc565b91505060c083015184820360c086015261304182826128bc565b91505060e083015161305660e0860182612856565b5061010083015161306b610100860182612856565b508091505092915050565b600060208201905081810360008301526130908184612f95565b905092915050565b600067ffffffffffffffff8211156130b3576130b2612a98565b5b602082029050602081019050919050565b60006130d76130d284613098565b612af8565b905080838252602082019050602084028301858111156130fa576130f9612d89565b5b835b81811015613123578061310f888261268d565b8452602084019350506020810190506130fc565b5050509392505050565b600082601f83011261314257613141612a8e565b5b81356131528482602086016130c4565b91505092915050565b600080604083850312156131725761317161263a565b5b600083013567ffffffffffffffff8111156131905761318f61263f565b5b61319c8582860161312d565b925050602083013567ffffffffffffffff8111156131bd576131bc61263f565b5b6131c985828601612df7565b9150509250929050565b600081519050919050565b600082825260208201905092915050565b6000819050602082019050919050565b600061320b8383612856565b60208301905092915050565b6000602082019050919050565b600061322f826131d3565b61323981856131de565b9350613244836131ef565b8060005b8381101561327557815161325c88826131ff565b975061326783613217565b925050600181019050613248565b5085935050505092915050565b6000602082019050818103600083015261329c8184613224565b905092915050565b6000602082840312156132ba576132b961263a565b5b600082013567ffffffffffffffff8111156132d8576132d761263f565b5b6132e484828501612b95565b91505092915050565b6132f6816127c7565b811461330157600080fd5b50565b600081359050613313816132ed565b92915050565b600080604083850312156133305761332f61263a565b5b600061333e8582860161268d565b925050602061334f85828601613304565b9150509250929050565b600080604083850312156133705761336f61263a565b5b600061337e858286016126c3565b925050602061338f858286016126c3565b9150509250929050565b600080604083850312156133b0576133af61263a565b5b60006133be8582860161268d565b92505060206133cf8582860161268d565b9150509250929050565b600080600080600060a086880312156133f5576133f461263a565b5b60006134038882890161268d565b95505060206134148882890161268d565b9450506040613425888289016126c3565b9350506060613436888289016126c3565b925050608086013567ffffffffffffffff8111156134575761345661263f565b5b61346388828901612e98565b9150509295509295909350565b7f455243313135353a2061646472657373207a65726f206973206e6f742061207660008201527f616c6964206f776e657200000000000000000000000000000000000000000000602082015250565b60006134cc602a83612cf1565b91506134d782613470565b604082019050919050565b600060208201905081810360008301526134fb816134bf565b9050919050565b7f4e487b7100000000000000000000000000000000000000000000000000000000600052603260045260246000fd5b7f4e487b7100000000000000000000000000000000000000000000000000000000600052602260045260246000fd5b6000600282049050600182168061357857607f821691505b60208210810361358b5761358a613531565b5b50919050565b7f4c616e642076616c7565206d7573742062652067726561746572207468616e2060008201527f7a65726f00000000000000000000000000000000000000000000000000000000602082015250565b60006135ed602483612cf1565b91506135f882613591565b604082019050919050565b6000602082019050818103600083015261361c816135e0565b9050919050565b60008190508160005260206000209050919050565b60006020601f8301049050919050565b600082821b905092915050565b6000600883026136857fffffffffffffffffffffffffffffffffffffffffffffffffffffffffffffffff82613648565b61368f8683613648565b95508019841693508086168417925050509392505050565b6000819050919050565b60006136cc6136c76136c2846126a2565b6136a7565b6126a2565b9050919050565b6000819050919050565b6136e6836136b1565b6136fa6136f2826136d3565b848454613655565b825550505050565b600090565b61370f613702565b61371a8184846136dd565b505050565b5b8181101561373e57613733600082613707565b600181019050613720565b5050565b601f8211156137835761375481613623565b61375d84613638565b8101602085101561376c578190505b61378061377885613638565b83018261371f565b50505b505050565b600082821c905092915050565b60006137a660001984600802613788565b1980831691505092915050565b60006137bf8383613795565b9150826002028217905092915050565b6137d882612865565b67ffffffffffffffff8111156137f1576137f0612a98565b5b6137fb8254613560565b613806828285613742565b600060209050601f8311600181146138395760008415613827578287015190505b61383185826137b3565b865550613899565b601f19841661384786613623565b60005b8281101561386f5784890151825560018201915060208501945060208101905061384a565b8683101561388c5784890151613888601f891682613795565b8355505b6001600288020188555050505b505050505050565b600081905092915050565b60006138b782612865565b6138c181856138a1565b93506138d1818560208601612881565b80840191505092915050565b60006138e982846138ac565b915081905092915050565b600060c082019050818103600083015261390e8189612d02565b905081810360208301526139228188612d02565b905081810360408301526139368187612d02565b9050818103606083015261394a8186612d02565b9050818103608083015261395e8185612d02565b905061396d60a0830184612718565b979650505050505050565b7f455243313135353a2063616c6c6572206973206e6f7420746f6b656e206f776e60008201527f6572206f7220617070726f766564000000000000000000000000000000000000602082015250565b60006139d4602e83612cf1565b91506139df82613978565b604082019050919050565b60006020820190508181036000830152613a03816139c7565b9050919050565b7f5469746c65206465656420646f6573206e6f7420657869737400000000000000600082015250565b6000613a40601983612cf1565b9150613a4b82613a0a565b602082019050919050565b60006020820190508181036000830152613a6f81613a33565b9050919050565b7f455243313135353a206163636f756e747320616e6420696473206c656e67746860008201527f206d69736d617463680000000000000000000000000000000000000000000000602082015250565b6000613ad2602983612cf1565b9150613add82613a76565b604082019050919050565b60006020820190508181036000830152613b0181613ac5565b9050919050565b7f5469746c65206465656420646f6573206e6f7420657869737420666f7220746860008201527f652070726f7669646564206c616e6420636f6465000000000000000000000000602082015250565b6000613b64603483612cf1565b9150613b6f82613b08565b604082019050919050565b60006020820190508181036000830152613b9381613b57565b9050919050565b7f496e76616c6964207469746c6520646565640000000000000000000000000000600082015250565b6000613bd0601283612cf1565b9150613bdb82613b9a565b602082019050919050565b60006020820190508181036000830152613bff81613bc3565b9050919050565b7f496e76616c696420636f6c6c61746572616c20616d6f756e7400000000000000600082015250565b6000613c3c601983612cf1565b9150613c4782613c06565b602082019050919050565b60006020820190508181036000830152613c6b81613c2f565b9050919050565b7f496e76616c6964206c616e642064656564000000000000000000000000000000600082015250565b6000613ca8601183612cf1565b9150613cb382613c72565b602082019050919050565b60006020820190508181036000830152613cd781613c9b565b9050919050565b7f455243313135353a206d696e7420746f20746865207a65726f2061646472657360008201527f7300000000000000000000000000000000000000000000000000000000000000602082015250565b6000613d3a602183612cf1565b9150613d4582613cde565b604082019050919050565b60006020820190508181036000830152613d6981613d2d565b9050919050565b7f4e487b7100000000000000000000000000000000000000000000000000000000600052601160045260246000fd5b6000613daa826126a2565b9150613db5836126a2565b9250828201905080821115613dcd57613dcc613d70565b5b92915050565b6000604082019050613de86000830185612718565b613df56020830184612718565b9392505050565b7f455243313135353a2069647320616e6420616d6f756e7473206c656e6774682060008201527f6d69736d61746368000000000000000000000000000000000000000000000000602082015250565b6000613e58602883612cf1565b9150613e6382613dfc565b604082019050919050565b60006020820190508181036000830152613e8781613e4b565b9050919050565b7f455243313135353a207472616e7366657220746f20746865207a65726f20616460008201527f6472657373000000000000000000000000000000000000000000000000000000602082015250565b6000613eea602583612cf1565b9150613ef582613e8e565b604082019050919050565b60006020820190508181036000830152613f1981613edd565b9050919050565b7f455243313135353a20696e73756666696369656e742062616c616e636520666f60008201527f72207472616e7366657200000000000000000000000000000000000000000000602082015250565b6000613f7c602a83612cf1565b9150613f8782613f20565b604082019050919050565b60006020820190508181036000830152613fab81613f6f565b9050919050565b60006040820190508181036000830152613fcc8185613224565b90508181036020830152613fe08184613224565b90509392505050565b7f455243313135353a2073657474696e6720617070726f76616c2073746174757360008201527f20666f722073656c660000000000000000000000000000000000000000000000602082015250565b6000614045602983612cf1565b915061405082613fe9565b604082019050919050565b6000602082019050818103600083015261407481614038565b9050919050565b61408481612664565b82525050565b600081519050919050565b600082825260208201905092915050565b60006140b18261408a565b6140bb8185614095565b93506140cb818560208601612881565b6140d4816128ab565b840191505092915050565b600060a0820190506140f4600083018861407b565b614101602083018761407b565b61410e6040830186612718565b61411b6060830185612718565b818103608083015261412d81846140a6565b90509695505050505050565b6000815190506141488161276e565b92915050565b6000602082840312156141645761416361263a565b5b600061417284828501614139565b91505092915050565b60008160e01c9050919050565b600060033d11156141a75760046000803e6141a460005161417b565b90505b90565b600060443d10614237576141bc612630565b60043d036004823e80513d602482011167ffffffffffffffff821117156141e4575050614237565b808201805167ffffffffffffffff8111156142025750505050614237565b80602083010160043d03850181111561421f575050505050614237565b61422e82602001850186612ac7565b82955050505050505b90565b7f455243313135353a207472616e7366657220746f206e6f6e2d4552433131353560008201527f526563656976657220696d706c656d656e746572000000000000000000000000602082015250565b6000614296603483612cf1565b91506142a18261423a565b604082019050919050565b600060208201905081810360008301526142c581614289565b9050919050565b7f455243313135353a204552433131353552656365697665722072656a6563746560008201527f6420746f6b656e73000000000000000000000000000000000000000000000000602082015250565b6000614328602883612cf1565b9150614333826142cc565b604082019050919050565b600060208201905081810360008301526143578161431b565b9050919050565b600060a082019050614373600083018861407b565b614380602083018761407b565b81810360408301526143928186613224565b905081810360608301526143a68185613224565b905081810360808301526143ba81846140a6565b9050969550505050505056fea26469706673582212208fe980516a5fe189f4e0df504478087f6c7e8a4b829d940849e3ca4c8c5f762464736f6c6343000818003368747470733a2f2f6578616d706c652e636f6d2f6d657461646174612f7b69647d2e6a736f6e",
  "linkReferences": {},
  "deployedLinkReferences": {}
}